:100000000C9446000C9465000C9465000C946500FB
:100010000C9465000C9465000C9465000C946500CC
:100020000C9465000C9465000C9465000C946500BC
:100030000C9465000C9465000C9465000C946500AC
:100040000C9421010C9465000C9465000C946500DF
:100050000C9465000C9465000C9465000C9465008C
:100060000C9465000C9465000C9465000C9465007C
:100070000C9465000C9465000C9465000C9465006C
:100080000C9465000C9465000C94650011241FBE4F
:10009000CFEFD0E1DEBFCDBF11E0A0E0B1E0E2E9FB
:1000A000F4E000E00BBF02C007900D92A831B10749
:1000B000D9F711E0A8E1B1E001C01D92AF31B1075D
:1000C000E1F70E94F3010C9447020C94000095E3C1
:1000D000292F2A95F1F7292F2A95F1F7292F2A950B
:1000E000F1F7292F2A95F1F79A95F1F7982F907F3C
:1000F000956095BB9B7F95BB8295807F856085BB16
:100100008B7F85BB0895CF93DF93EC0103C00E94E2
:100110006700219688818823D1F7DF91CF910895D8
:10012000982F907F946095BB9B7F95BB8295807F35
:10013000846085BB8B7F85BB85E08A95F1F7089548
:100140001F93182F85E3982F9A95F1F7982F9A957A
:10015000F1F7982F9A95F1F7982F9A95F1F78A95DC
:10016000F1F7812F0E9490001150123020F480E4AA
:100170009FE10197F1F71F9108950F931F93CF937C
:10018000DF938B01880F880F880F80640E94A00086
:10019000C0E0D0E0F801EC0FFD1F80810E946700F5
:1001A0002196C830D105B1F7DF91CF911F910F9102
:1001B0000895882349F0813011F4605C05C08230D5
:1001C00011F4605F01C0605B862F80680E94A00010
:1001D00008958FEF84BB80E69AEE0197F1F780E3F4
:1001E0000E94900080E29EE40197F1F780E30E9474
:1001F000900080EA9FE00197F1F782E30E9490006F
:1002000088E20E94A00088E00E94A00081E00E9495
:10021000A00086E00E94A0008CE00E94A00008954B
:1002200097B1907E97B997B1883008F087E0982B06
:1002300097B9369A349BFECF349A24B135B1C901AF
:1002400008951F920F920FB60F920BB60F921124C2
:100250002F933F934F935F936F937F938F939F93CE
:10026000AF93BF93EF93FF9381EE82BFD89A82E35F
:1002700090E035E0232F2A95F1F70197D9F781E037
:100280000E94100190931E0180931D01D8988091C7
:100290001D0190911E018955924018F0DB9ADC985F
:1002A00009C080911D0190911E018955924010F462
:1002B000DB98DC9AFF91EF91BF91AF919F918F9165
:1002C0007F916F915F914F913F912F910F900BBE56
:1002D0000F900FBE0F901F9018950F931F93CF9301
:1002E000DF939C018B01109218011092190110925A
:1002F0001A0110921B0110921C01C0E0D0E0C9014C
:10030000B8010E943302FE01E85EFE4F8083219611
:10031000C901B8010E9433029B016115710579F78B
:10032000DF91CF911F910F9108958A3010F4805D75
:100330000895895C089520EA3FE004C0F9013197EF
:10034000F1F7019718161906CCF3089535E004C0AB
:10035000232F2A95F1F7019718161906CCF3089563
:100360001F93162F6AE070E00E946D01112381F146
:10037000163010F015E002C0153049F480911C01D0
:100380008A3010F4805D01C0895C0E9467001430DF
:1003900048F080911B018A3010F4805D01C0895CB7
:1003A0000E946700133048F080911A018A3010F4DF
:1003B000805D01C0895C0E946700113049F0809126
:1003C00019018A3010F4805D01C0895C0E946700C9
:1003D000809118018A3010F4805D01C0895C0E9410
:1003E00067001F9108950F931F930E94E90080E01A
:1003F00060E00E94D90080E091E00E94830081E0EB
:1004000060E00E94D9008AE091E00E948300D09AC7
:10041000D898809161008D7F80936100D39ADB989A
:10042000D49ADC9A83B7877B83BF83B7876083BF07
:1004300081EE82BF87B7816087BF789487B18F7163
:1004400087B986B1876886B9F89400911D0110912B
:100450001E01789481E069E00E94D900C80163E040
:100460000E94B001F1CFAA1BBB1B51E107C0AA1F1C
:10047000BB1FA617B70710F0A61BB70B881F991F45
:100480005A95A9F780959095BC01CD010895F894EF
:02049000FFCF9C
:1004920049522053656E736F720049525F41444363
:0804A200203D20202020200055
:00000001FF
