:100000000C9446000C9465000C9465000C946500FB
:100010000C9465000C9465000C9465000C946500CC
:100020000C9465000C9465000C9465000C946500BC
:100030000C9465000C9465000C9465000C946500AC
:100040000C9465000C9465000C9465000C9465009C
:100050000C9465000C9465000C9465000C9465008C
:100060000C9465000C9465000C9465000C9465007C
:100070000C9465000C9465000C9465000C9465006C
:100080000C9465000C9465000C94650011241FBE4F
:10009000CFEFD0E1DEBFCDBF11E0A0E0B1E0E8EDF1
:1000A000F6E000E00BBF02C007900D92A634B10746
:1000B000D9F711E0A6E4B1E001C01D92A735B10760
:1000C000E1F70E9462020C946A030C94000095E32D
:1000D000292F2A95F1F7292F2A95F1F7292F2A950B
:1000E000F1F7292F2A95F1F79A95F1F7982F907F3C
:1000F000956095BB9B7F95BB8295807F856085BB16
:100100008B7F85BB0895CF93DF93EC0103C00E94E2
:100110006700219688818823D1F7DF91CF910895D8
:10012000982F907F946095BB9B7F95BB8295807F35
:10013000846085BB8B7F85BB85E08A95F1F7089548
:100140001F93182F85E3982F9A95F1F7982F9A957A
:10015000F1F7982F9A95F1F7982F9A95F1F78A95DC
:10016000F1F7812F0E9490001150123020F480E4AA
:100170009FE10197F1F71F9108950F931F93CF937C
:10018000DF938B01880F880F880F80640E94A00086
:10019000C0E0D0E0F801EC0FFD1F80810E946700F5
:1001A0002196C830D105B1F7DF91CF911F910F9102
:1001B0000895882349F0813011F4605C05C08230D5
:1001C00011F4605F01C0605B862F80680E94A00010
:1001D00008958FEF84BB80E69AEE0197F1F780E3F4
:1001E0000E94900080E29EE40197F1F780E30E9474
:1001F000900080EA9FE00197F1F782E30E9490006F
:1002000088E20E94A00088E00E94A00081E00E9495
:10021000A00086E00E94A0008CE00E94A00008954B
:100220009C0180914401909145018217930724F429
:10023000209144013091450180914E0190914F01F0
:100240006091440170914501D898AC01249FC00190
:10025000259F900D349F900D11240E9457037BBD64
:100260006ABD0895AC0180914401909145018417C5
:10027000950724F4409144015091450180914E012D
:1002800090914F016091440170914501D89A20915D
:100290004E0130914F01FC014E9FC0014F9F900DC8
:1002A0005E9F900D11240E945703261B370B3BBD08
:1002B0002ABD0895D8981BBC1ABC08959C01809152
:1002C000440190914501821793072CF42091440139
:1002D0003091450112C08091440190914501909563
:1002E00081959F4F2817390744F4809144019091DC
:1002F000450122273327281B390B1216130624F435
:10030000C9010E94100108952115310521F4D898E2
:100310001BBC1ABC089588279927821B930B0E9447
:1003200032010895CC9902C081E00895CD9902C0B0
:1003300082E00895B09B02C080E0089583E00895B4
:100340001F93CF93DF930E949201182FC0EADFE042
:1003500082E390E0FE013197F1F70197D9F70E940F
:100360009201181711F0182FF3CF112319F41092DE
:100370004D0108C080914D01811711F410E002C0B9
:1003800010934D01812FDF91CF911F9108952091FE
:100390004B0130914C012F5F3F4F30934C01209324
:1003A0004B012817390710F480E0089510924C0192
:1003B00010924B0181E008950F931F93CF93DF9329
:1003C0009C018B0110924601109247011092480146
:1003D0001092490110924A01C0E0D0E0C901B80171
:1003E0000E944303FE01EA5BFE4F80832196C90110
:1003F000B8010E9443039B016115710579F7DF91F4
:10040000CF911F910F9108958A3010F4805D089567
:10041000895C089520EA3FE004C0F9013197F1F7C3
:10042000019718161906CCF3089535E004C0232F60
:100430002A95F1F7019718161906CCF308951F9322
:10044000162F6AE070E00E94DC01112381F1163062
:1004500010F015E002C0153049F480914A018A304D
:1004600010F4805D01C0895C0E946700143048F080
:10047000809149018A3010F4805D01C0895C0E943E
:100480006700133048F0809148018A3010F4805D95
:1004900001C0895C0E946700113049F080914701DA
:1004A0008A3010F4805D01C0895C0E9467008091F1
:1004B00046018A3010F4805D01C0895C0E946700AB
:1004C0001F9108951F930E94E90080E060E00E9460
:1004D000D90080E091E00E94830081E060E00E940A
:1004E000D90081E191E00E94830080ED97E020EA4D
:1004F0003FE0F9013197F1F70197D9F78AB38F7C83
:100500008ABB8BB380638BBBB898C09AD09ABD9AD4
:10051000D29A8FB58E7B8FBD8FB582688FBD8EB519
:100520008B7F8EBD8EB58B618EBD82E390E097BDD3
:1005300086BD86B597B590934F0180934E0110927A
:10054000510110925001D8981BBC1ABC12E00E94B5
:10055000A0018130C9F4809150019091510105961C
:10056000909351018093500120915001309151019D
:10057000809144019091450182179307ECF5809199
:100580004401909145011AC08230E9F480915001F4
:1005900090915101059790935101809350012091C2
:1005A00050013091510180915201909153012817CF
:1005B000390714F5809152019091530190935101A4
:1005C0008093500119C08330B9F4809154018F5F3A
:1005D0008093540180915401823010F010925401A4
:1005E00080915401882311F4109255018091540197
:1005F000813011F48093550180915501813051F47F
:100600001092560180915001909151010E94100169
:10061000DA980AC080915501882331F4109356016D
:10062000D8981BBC1ABCDA9A81E00E94A000809185
:100630005501882341F460E00E94D9008EE191E0E9
:100640000E94830084CF80915501813009F07FCFD3
:1006500080E060E00E94D9008AE291E00E9483007D
:1006600081E060E00E94D90087E391E00E9483006E
:10067000809150019091510163E00E941F0285E238
:100680000E94670064CFAA1BBB1B51E107C0AA1FD1
:10069000BB1FA617B70710F0A61BB70B881F991F23
:1006A0005A95A9F780959095BC01CD01089597FBC7
:1006B000092E07260AD077FD04D0E5DF06D00020FA
:1006C0001AF4709561957F4F0895F6F7909581958E
:0806D0009F4F0895F894FFCF3D
:1006D8004443204D6F746F7220436F6E74726F6C59
:1006E80000546573742050726F6772616D005374A3
:1006F8006F70204D6F64652121002052756E204D6A
:100708006F6465212120004D6F746F7220447574E9
:06071800793D20006400A1
:00000001FF
