:100000000C9446000C9465000C9465000C946500FB
:100010000C9465000C9465000C9465000C946500CC
:100020000C9465000C9465000C9421010C946500FF
:100030000C9465000C9465000C9465000C946500AC
:100040000C9465000C9465000C9465000C9465009C
:100050000C9465000C9465000C9465000C9465008C
:100060000C9465000C9465000C9465000C9465007C
:100070000C9465000C9465000C9465000C9465006C
:100080000C9465000C9465000C94650011241FBE4F
:10009000CFEFD0E1DEBFCDBF11E0A0E0B1E0EEEDEB
:1000A000F6E000E00BBF02C007900D92A033B1074D
:1000B000D9F711E0A0E3B1E001C01D92AF34B10760
:1000C000E1F70E94D0020C946D030C94000095E3BC
:1000D000292F2A95F1F7292F2A95F1F7292F2A950B
:1000E000F1F7292F2A95F1F79A95F1F7982F907F3C
:1000F000956095BB9B7F95BB8295807F856085BB16
:100100008B7F85BB0895CF93DF93EC0103C00E94E2
:100110006700219688818823D1F7DF91CF910895D8
:10012000982F907F946095BB9B7F95BB8295807F35
:10013000846085BB8B7F85BB85E08A95F1F7089548
:100140001F93182F85E3982F9A95F1F7982F9A957A
:10015000F1F7982F9A95F1F7982F9A95F1F78A95DC
:10016000F1F7812F0E9490001150123020F480E4AA
:100170009FE10197F1F71F9108950F931F93CF937C
:10018000DF938B01880F880F880F80640E94A00086
:10019000C0E0D0E0F801EC0FFD1F80810E946700F5
:1001A0002196C830D105B1F7DF91CF911F910F9102
:1001B0000895882349F0813011F4605C05C08230D5
:1001C00011F4605F01C0605B862F80680E94A00010
:1001D00008958FEF84BB80E69AEE0197F1F780E3F4
:1001E0000E94900080E29EE40197F1F780E30E9474
:1001F000900080EA9FE00197F1F782E30E9490006F
:1002000088E20E94A00088E00E94A00081E00E9495
:10021000A00086E00E94A0008CE00E94A00008954B
:1002200097B1907E97B997B1883008F087E0982B06
:1002300097B9369A349BFECF349A24B135B1C901AF
:1002400008951F920F920FB60F920BB60F921124C2
:100250002F933F934F935F936F937F938F939F93CE
:10026000AF93BF93EF93FF9384E684BD80914D01DC
:1002700090914E01019690934E0180934D0101970C
:1002800009F0CBC010924E0110924D0182E00E9405
:100290001001909336018093350183E00E94100194
:1002A0009093380180933701809135019091360108
:1002B0009C0140E050E08091410190914201A09169
:1002C0004301B0914401280F391F4A1F5B1F20933F
:1002D0004101309342014093430150934401809186
:1002E000490190914A01019690934A0180934901F6
:1002F0004097B9F474E056954795379527957A95C8
:10030000D1F730933A012093390110924A011092AB
:100310004901109241011092420110924301109242
:1003200044018091390190913A0190933C0180936E
:100330003B0180913701909138019C0140E050E0F1
:100340008091450190914601A0914701B0914801EB
:10035000280F391F4A1F5B1F209345013093460128
:10036000409347015093480180914B0190914C017B
:10037000019690934C0180934B0180389105B9F41C
:1003800067E056954795379527956A95D1F730934D
:100390003E0120933D0110924C0110924B011092AE
:1003A0004501109246011092470110924801609158
:1003B0003D0170913E0180E090E022EE34E040E0AB
:1003C00050E00E943A03672F782F892F9927709366
:1003D000400160933F0180913B0190913C018A3F35
:1003E000910510F4DA9808C080913B0190913C018E
:1003F0008A3F910508F0DA9A80913F01909140017F
:100400008C52914010F4DB9A08C080913F0190918A
:1004100040018C52914008F0DB98FF91EF91BF9121
:10042000AF919F918F917F916F915F914F913F918C
:100430002F910F900BBE0F900FBE0F901F9018952D
:100440000F931F93CF93DF939C018B011092300188
:100450001092310110923201109233011092340146
:10046000C0E0D0E0C901B8010E945903FE01E05D7F
:10047000FE4F80832196C901B8010E9459039B0158
:100480006115710579F7DF91CF911F910F91089553
:100490008A3010F4805D0895895C089520EA3FE079
:1004A00004C0F9013197F1F7019718161906CCF33A
:1004B000089535E004C0232F2A95F1F70197181607
:1004C0001906CCF308951F93162F6AE070E00E947E
:1004D0002002112381F1163010F015E002C0153012
:1004E00049F4809134018A3010F4805D01C0895C48
:1004F0000E946700143048F0809133018A3010F474
:10050000805D01C0895C0E946700133048F08091D3
:1005100032018A3010F4805D01C0895C0E9467005E
:10052000113049F0809131018A3010F4805D01C0B2
:10053000895C0E946700809130018A3010F4805DF0
:1005400001C0895C0E9467001F9108956AE070E015
:100550000E942002809132018A3010F4805D01C037
:10056000895C0E946700809131018A3010F4805DBF
:1005700001C0895C0E94670080E091E00E948300D6
:10058000809130018A3010F4805D01C0895C0E9446
:1005900067008FED0E94670083E40E946700089562
:1005A000EF92FF920F931F930E94E90080E060E0BA
:1005B0000E94D90082E091E00E94830081E060E027
:1005C0000E94D90083E191E00E94830080ED97E0D2
:1005D00020EA3FE0F9013197F1F70197D9F781E07F
:1005E0000E94A00080E060E00E94D90082E291E0D9
:1005F0000E94830081E060E00E94D90089E291E0DE
:100600000E948300D29A809161008B7F8093610069
:10061000D39A80916100877F8093610085B5857B47
:1006200085BD85B5856085BD84E684BD87B780645A
:1006300087BF789487B18F7187B986B1876886B98B
:10064000F8940091350110913601E0903F01F0904F
:100650004001789480E066E00E94D900C80163E020
:100660000E94630281E066E00E94D900C7010E94F7
:10067000A602E6CF629FD001739FF001829FE00D3A
:10068000F11D649FE00DF11D929FF00D839FF00D11
:10069000749FF00D659FF00D9927729FB00DE11DBD
:1006A000F91F639FB00DE11DF91FBD01CF0111249A
:1006B0000895AA1BBB1B51E107C0AA1FBB1FA617A9
:1006C000B70710F0A61BB70B881F991F5A95A9F7FB
:0E06D00080959095BC01CD010895F894FFCF60
:1006DE002E004344532C2054454D502053656E73C9
:1006EE006F7200546573742050726F6772616D2162
:1006FE002100434453203D2000544D50203D200006
:00000001FF
