:100000000C9446000C9465000C9465000C946500FB
:100010000C9465000C94F5010C9460020C9465003E
:100020000C9465000C9465000C9465000C946500BC
:100030000C9465000C9465000C9465000C946500AC
:100040000C9410010C9465000C9465000C946500F0
:100050000C9465000C9465000C9465000C9465008C
:100060000C9465000C9465000C9465000C9465007C
:100070000C9465000C9465000C9465000C9465006C
:100080000C9465000C9465000C94650011241FBE4F
:10009000CFEFD0E1DEBFCDBF11E0A0E0B1E0EAEBF1
:1000A000F8E000E00BBF02C007900D92A032B1074C
:1000B000D9F711E0A0E2B1E001C01D92A634B1076A
:1000C000E1F70E94AA030C945B040C94000095E3F2
:1000D000292F2A95F1F7292F2A95F1F7292F2A950B
:1000E000F1F7292F2A95F1F79A95F1F7982F907F3C
:1000F000956095BB9B7F95BB8295807F856085BB16
:100100008B7F85BB0895CF93DF93EC0103C00E94E2
:100110006700219688818823D1F7DF91CF910895D8
:10012000982F907F946095BB9B7F95BB8295807F35
:10013000846085BB8B7F85BB85E08A95F1F7089548
:100140001F93182F85E3982F9A95F1F7982F9A957A
:10015000F1F7982F9A95F1F7982F9A95F1F78A95DC
:10016000F1F7812F0E9490001150123020F480E4AA
:100170009FE10197F1F71F9108950F931F93CF937C
:10018000DF938B01880F880F880F80640E94A00086
:10019000C0E0D0E0F801EC0FFD1F80810E946700F5
:1001A0002196C830D105B1F7DF91CF911F910F9102
:1001B0000895882349F0813011F4605C05C08230D5
:1001C00011F4605F01C0605B862F80680E94A00010
:1001D00008958FEF84BB80E69AEE0197F1F780E3F4
:1001E0000E94900080E29EE40197F1F780E30E9474
:1001F000900080EA9FE00197F1F782E30E9490006F
:1002000088E20E94A00088E00E94A00081E00E9495
:10021000A00086E00E94A0008CE00E94A00008954B
:100220001F920F920FB60F9211242F933F935F935B
:100230006F937F938F939F93AF93BF9384E682BF17
:1002400080914201909143010196909343018093E4
:100250004201059709F0BBC0109243011092420180
:1002600080913E018F5F80933E0180913E018330FB
:1002700019F481E080933E0180913E01813061F468
:10028000D89A84E190E035E0232F2A95F1F7019781
:10029000D9F7D89881E00FC080913E01823079F47F
:1002A000D99A84E190E035E0232F2A95F1F7019760
:1002B000D9F7D99882E080932801109229012091E2
:1002C00034013091350180912A0190912B018217E0
:1002D000930758F08091340190913501892B29F0D2
:1002E000809134019091350115C020912A013091FF
:1002F0002B0180913401909135012817390770F452
:1003000080912A0190912B01892B41F080912A0143
:1003100090912B0190931F0180931E0180911E01EB
:1003200090911F01899720F481E080933F0102C0E2
:1003300010923F0180911E0190911F016AE070E0D0
:100340000E9447046F5F7F4F7093410160934001AB
:100350008091400190914101029730F481E090E05A
:10036000909341018093400180914001909141011F
:10037000049730F084E090E0909341018093400135
:1003800080913F018130E9F4209140013091410199
:1003900080912001909121010196909321018093F9
:1003A00020018217930798F01092210110922001EA
:1003B0008BB398E089278BBB8BB390E189278BBBEC
:1003C00006C080913F01882311F4DB98DC9ABF912D
:1003D000AF919F918F917F916F915F913F912F91FD
:1003E0000F900FBE0F901F9018951F920F920FB68F
:1003F0000F9211242F933F935F936F937F938F936B
:100400009F93AF93BF9320912801213009F04AC0F8
:1004100080912901882359F4809188009091890066
:1004200090933D0180933C01209329013BC0809132
:1004300029018130B9F580918800909189009093CD
:100440003B0180933A0120913C0130913D01821B98
:10045000930B9695879590933901809338016AE3C1
:1004600070E00E94470470933501609334018091DD
:100470003401909135018D57914040F080913601C3
:10048000909137019093350180933401809134012C
:100490009091350190933701809336011092290194
:1004A00010922801BF91AF919F918F917F916F9191
:1004B0005F913F912F910F900FBE0F901F90189555
:1004C0001F920F920FB60F9211242F933F935F93B9
:1004D0006F937F938F939F93AF93BF9380912801E6
:1004E000823009F04BC080912901882361F480910A
:1004F000880090918900909333018093320181E0CC
:10050000809329013BC0809129018130B9F5809108
:10051000880090918900909331018093300120915F
:10052000320130913301821B930B969587959093FE
:100530002F0180932E016AE370E00E9447047093BC
:100540002B0160932A0180912A0190912B018D57F4
:10055000914040F080912C0190912D0190932B01BE
:1005600080932A0180912A0190912B0190932D0173
:1005700080932C011092290110922801BF91AF9114
:100580009F918F917F916F915F913F912F910F90EC
:100590000FBE0F901F901895B09902C081E008958A
:1005A000B19902C082E00895B29B02C080E0089534
:1005B00083E008951F93CF93DF930E94CC02182FFE
:1005C000C0EADFE08AE090E0FE013197F1F70197A1
:1005D000D9F78AE090E0FE013197F1F70197D9F75A
:1005E0008AE090E0FE013197F1F70197D9F70E9478
:1005F000CC02181711F0182FE5CF112319F410921F
:10060000270108C080912701811711F410E002C072
:1006100010932701812FDF91CF911F9108950F93A0
:100620001F93CF93DF939C018B01109222011092B4
:100630002301109224011092250110922601C0E09E
:10064000D0E0C901B8010E944704FE01EE5DFE4FF3
:1006500080832196C901B8010E9447049B0161155E
:10066000710579F7DF91CF911F910F9108958A302D
:1006700010F4805D0895895C0895209120013091E7
:1006800021012F5F3F4F3093210120932001281734
:10069000390710F480E00895109221011092200192
:1006A00081E0089520EA3FE004C0F9013197F1F7B5
:1006B000019718161906CCF3089535E004C0232FCE
:1006C0002A95F1F7019718161906CCF308951F9390
:1006D000162F6AE070E00E940F03112381F116309B
:1006E00010F015E002C0153049F4809126018A30DF
:1006F00010F4805D01C0895C0E946700143048F0EE
:10070000809125018A3010F4805D01C0895C0E94CF
:100710006700133048F0809124018A3010F4805D26
:1007200001C0895C0E946700113049F0809123016B
:100730008A3010F4805D01C0895C0E94670080915E
:1007400022018A3010F4805D01C0895C0E9467003C
:100750001F910895DF92EF92FF920F931F93CF9313
:10076000DF930E94E90080E060E00E94D90080E011
:1007700091E00E94830081E060E00E94D9008FE058
:1007800091E00E9483008AB383608ABB8BB38C7F25
:100790008BBB82B18F7C82B9D39ADB98D49ADC9AD6
:1007A000B898C09A83B7877B83BF83B7876083BFBE
:1007B00084E682BF87B7816087BF80918B008C7F82
:1007C00080938B0080918A00827E80938A00809142
:1007D0008A00826080938A008AB7857F8ABF8AB741
:1007E00085608ABF89B7806389BF7894C0E0D0E014
:1007F00044E6D42E0E94DA0290E08130910521F582
:100800002196C230D105E1F0C130D105B9F4789418
:10081000D2BE89B7806389BF1092290110923E0130
:100820001092280110923F01109241011092400154
:100830001092450110924401D8980EC0209761F49F
:10084000F894DB98DC9A06C0029731F42196C33005
:10085000D10511F4C0E0D0E0F8940091340110917A
:100860003501E0902A01F0902B01789480E069E056
:100870000E94D900C80163E00E94670381E069E03B
:100880000E94D900C70163E00E946703B3CFAA1B8F
:10089000BB1B51E107C0AA1FBB1FA617B70710F06B
:1008A000A61BB70B881F991F5A95A9F7809590959D
:0A08B000BC01CD010895F894FFCFBC
:1008BA00446973745F31203D20202020636D004419
:1008CA006973745F32203D20202020636D002C0163
:00000001FF
