:100000000C9446000C9465000C9465000C946500FB
:100010000C9465000C9465000C9465000C946500CC
:100020000C9465000C9465000C9465000C946500BC
:100030000C9465000C9465000C9465000C946500AC
:100040000C9465000C9465000C9465000C9465009C
:100050000C9465000C9465000C9465000C9465008C
:100060000C9465000C9465000C9465000C9465007C
:100070000C9465000C9465000C940A010C946500C6
:100080000C9465000C9465000C94650011241FBE4F
:10009000CFEFD0E1DEBFCDBF11E0A0E0B1E0E8E8F6
:1000A000F5E000E00BBF02C007900D92A238B10747
:1000B000D9F711E0A2E8B1E001C01D92AB38B10759
:1000C000E1F70E94CE010C94C2020C94000095E36B
:1000D000292F2A95F1F7292F2A95F1F7292F2A950B
:1000E000F1F7292F2A95F1F79A95F1F7982F907F3C
:1000F000956095BB9B7F95BB8295807F856085BB16
:100100008B7F85BB0895CF93DF93EC0103C00E94E2
:100110006700219688818823D1F7DF91CF910895D8
:10012000982F907F946095BB9B7F95BB8295807F35
:10013000846085BB8B7F85BB85E08A95F1F7089548
:100140001F93182F85E3982F9A95F1F7982F9A957A
:10015000F1F7982F9A95F1F7982F9A95F1F78A95DC
:10016000F1F7812F0E9490001150123020F480E4AA
:100170009FE10197F1F71F9108958295880F880FED
:10018000807C680F862F80680E94A00008958FEF02
:1001900084BB80E69AEE0197F1F780E30E9490001D
:1001A00080E29EE40197F1F780E30E94900080EAEC
:1001B0009FE00197F1F782E30E94900088E20E949D
:1001C000A00088E00E94A00081E00E94A00086E0DC
:1001D0000E94A0008CE00E94A00008950F931F933E
:1001E000CF93DF938B01880F880F880F80640E9464
:1001F000A000C0E0D0E0F801EC0FFD1F80810E945C
:1002000067002196C830D105B1F7DF91CF911F91DA
:100210000F9108951F920F920FB60F9211248F9392
:100220009F9380919C00809387019091870180919A
:100230009B0085FFFCCF90939C0080919B0085FFE5
:10024000FCCF8AE080939C00809188018F5F80932F
:10025000880181E0809389019F918F910F900FBE5B
:100260000F901F901895982F80919B0085FFFCCFD1
:1002700090939C000895FC0107C080919B0085FF2E
:10028000FCCF319690939C0090819923B1F708950B
:100290000F931F93CF93DF939C018B0110928201E8
:1002A00010928301109284011092850110928601B0
:1002B000C0E0D0E0C901B8010E94AE02FE01EE57D5
:1002C000FE4F80832196C901B8010E94AE029B01B6
:1002D0006115710579F7DF91CF911F910F91089505
:1002E0008A3010F4805D0895895C089520EA3FE02B
:1002F00004C0F9013197F1F7019718161906CCF3EC
:10030000089535E004C0232F2A95F1F701971816B8
:100310001906CCF308951F93162F6AE070E00E942F
:100320004801112381F1163010F015E002C015309C
:1003300049F4809186018A3010F4805D01C0895CA7
:100340000E946700143048F0809185018A3010F4D3
:10035000805D01C0895C0E946700133048F0809185
:1003600084018A3010F4805D01C0895C0E946700BE
:10037000113049F0809183018A3010F4805D01C012
:10038000895C0E946700809182018A3010F4805D50
:1003900001C0895C0E9467001F9108950F931F930D
:1003A0000E94C70080E060E00E94BD0080E091E014
:1003B0000E94830081E060E00E94BD008FE091E038
:1003C0000E94830088EE93E020EA3FE0F901319734
:1003D000F1F70197D9F7D09AD89A80919B008E7F38
:1003E00080939B0080919B00826080939B00809112
:1003F0009A008B7F80939A0080919A008861809305
:100400009A0080919D00877880939D0080919D0047
:10041000866080939D00109298008FEC80939900E5
:1004200080919A00806880939A0078940AE01091F5
:1004300089011130E1F780918701813611F4D89A52
:1004400050C080918701823611F4D8984AC08091BB
:100450008701833609F03FC08DE191E00E943B01A6
:100460008091880190E06AE070E00E9448018091EC
:1004700084018A3018F4982F905D02C0982F995CFF
:1004800080919B0085FFFCCF90939C00809183011D
:100490008A3018F4982F905D02C0982F995C809153
:1004A0009B0085FFFCCF90939C00809182018A3055
:1004B00018F4982F905D02C0982F995C80919B0052
:1004C00085FFFCCF90939C0080919B0085FFFCCF23
:1004D00000939C0006C084E391E00E943B011093CE
:1004E0008A0180918A018823F1F481E00E94A000B2
:1004F00080E060E00E94BD0081E591E00E94830001
:100500008091880190E063E00E948B0181E060E0CF
:100510000E94BD008DE591E00E94830080918701DB
:100520000E94670018C080918A018130A1F40E9466
:10053000A00080E060E00E94BD008AE691E00E9499
:10054000830081E060E00E94BD0086E791E00E94A8
:10055000830010928A011092890169CFAA1BBB1BEC
:1005600051E107C0AA1FBB1FA617B70710F0A61BB3
:10057000B70B881F991F5A95A9F780959095BC01D4
:08058000CD010895F894FFCFAE
:10058800426C7565746F6F74682050726F670053A2
:10059800656E6420436F6D6D616E642E00526563F5
:1005A8006569766564204461746120436F756E7473
:1005B800203D2000436F6D6D616E64204572726F3F
:1005C800722121202054727920616761696E2E0A98
:1005D800005265637620636E74203D200052656387
:1005E800762064617461203D2000436D642045726B
:1005F800726F7221210054727920416761696E2EF1
:020608000000F0
:00000001FF
