:100000000C9446000C9465000C9465000C946500FB
:100010000C9465000C9465000C9465000C946500CC
:100020000C9465000C9465000C9465000C946500BC
:100030000C9465000C9465000C9465000C946500AC
:100040000C9467000C9465000C9465000C9465009A
:100050000C9465000C9465000C9465000C9465008C
:100060000C9465000C9465000C9465000C9465007C
:100070000C9465000C9465000C9465000C9465006C
:100080000C9465000C9465000C94650011241FBE4F
:10009000CFEFD0E1DEBFCDBF11E0A0E0B1E0E6E2FE
:1000A000F4E000E00BBF02C007900D92A831B10749
:1000B000D9F711E0A8E1B1E001C01D92AF31B1075D
:1000C000E1F70E9418010C9411020C9400001F9299
:1000D0000F920FB60F9211242F933F938F939F93FC
:1000E00081EE82BFD89A82E390E035E0232F2A95F3
:1000F000F1F70197D9F787B1807F87B9369A349B9A
:10010000FECF349A84B195B190931E0180931D0166
:10011000D8989F918F913F912F910F900FBE0F9084
:100120001F9018950F931F93CF93DF939C018B0122
:10013000109218011092190110921A0110921B01CD
:1001400010921C01C0E0D0E0C901B8010E94FD017D
:10015000FE01E85EFE4F80832196C901B8010E942E
:10016000FD019B016115710579F7DF91CF911F9119
:100170000F9108958A3010F4805D0895895C089588
:1001800020EA3FE004C0F9013197F1F70197181612
:100190001906CCF3089535E004C0232F2A95F1F712
:1001A000019718161906CCF308951F93162F6AE0CD
:1001B00070E00E949200112381F1163010F015E0DA
:1001C00002C0153049F480911C018A3010F4805D22
:1001D00001C0895C0E945401143048F080911B01D9
:1001E0008A3010F4805D01C0895C0E945401133094
:1001F00048F080911A018A3010F4805D01C0895C5A
:100200000E945401113049F0809119018A3010F494
:10021000805D01C0895C0E945401809118018A3080
:1002200010F4805D01C0895C0E9454011F91089503
:100230000F931F930E94D60180E060E00E94C601E8
:1002400080E091E00E94700181E060E00E94C601C0
:100250008AE091E00E947001D09AD8988091610064
:100260008E7F8093610083B7877B83BF83B787606E
:1002700083BF81EE82BF87B7816087BF789487B1E3
:100280008F7187B986B1876886B9F89400911D018E
:1002900010911E01789481E069E00E94C601C801B6
:1002A00063E00E94D500F1CF95E3292F2A95F1F75D
:1002B000292F2A95F1F7292F2A95F1F7292F2A9529
:1002C000F1F79A95F1F7982F907F956095BB9B7FFA
:1002D00095BB8295807F856085BB8B7F85BB0895AC
:1002E000CF93DF93EC0103C00E94540121968881D3
:1002F0008823D1F7DF91CF910895982F907F946054
:1003000095BB9B7F95BB8295807F846085BB8B7FEF
:1003100085BB85E08A95F1F708951F93182F85E333
:10032000982F9A95F1F7982F9A95F1F7982F9A951B
:10033000F1F7982F9A95F1F78A95F1F7812F0E949E
:100340007D011150123020F480E49FE10197F1F714
:100350001F9108950F931F93CF93DF938B01880F05
:10036000880F880F80640E948D01C0E0D0E0F80102
:10037000EC0FFD1F80810E9454012196C830D105E9
:10038000B1F7DF91CF911F910F910895882349F024
:10039000813011F4605C05C0823011F4605F01C0EF
:1003A000605B862F80680E948D0108958FEF84BB6B
:1003B00080E69AEE0197F1F780E30E947D0180E2EA
:1003C0009EE40197F1F780E30E947D0180EA9FE0BF
:1003D0000197F1F782E30E947D0188E20E948D017E
:1003E00088E00E948D0181E00E948D0186E00E94DC
:1003F0008D018CE00E948D010895AA1BBB1B51E169
:1004000007C0AA1FBB1FA617B70710F0A61BB70B84
:10041000881F991F5A95A9F780959095BC01CD0129
:060420000895F894FFCFDF
:1004260049522053656E736F720049525F414443CF
:08043600203D202020202000C1
:00000001FF
