:100000000C9446000C9465000C9465000C946500FB
:100010000C9465000C9465000C9465000C946500CC
:100020000C9465000C9465000C944A010C946500D6
:100030000C9465000C9465000C9465000C946500AC
:100040000C9465000C9465000C9465000C9465009C
:100050000C9465000C9465000C9465000C9465008C
:100060000C9465000C9465000C9465000C9465007C
:100070000C9465000C9465000C9465000C9465006C
:100080000C9465000C9465000C94650011241FBE4F
:10009000CFEFD0E1DEBFCDBF11E0A0E0B1E0E2EEF6
:1000A000F9E000E00BBF02C007900D92AA33B10740
:1000B000D9F711E0AAE3B1E001C01D92AD34B10758
:1000C000E1F70E9441030C94EF040C94000095E3C7
:1000D000292F2A95F1F7292F2A95F1F7292F2A950B
:1000E000F1F7292F2A95F1F79A95F1F7982F907F3C
:1000F000956095BB9B7F95BB8295807F856085BB16
:100100008B7F85BB0895CF93DF93EC0103C00E94E2
:100110006700219688818823D1F7DF91CF910895D8
:10012000982F907F946095BB9B7F95BB8295807F35
:10013000846085BB8B7F85BB85E08A95F1F7089548
:100140001F93182F85E3982F9A95F1F7982F9A957A
:10015000F1F7982F9A95F1F7982F9A95F1F78A95DC
:10016000F1F7812F0E9490001150123020F480E4AA
:100170009FE10197F1F71F9108950F931F93CF937C
:10018000DF938B01880F880F880F80640E94A00086
:10019000C0E0D0E0F801EC0FFD1F80810E946700F5
:1001A0002196C830D105B1F7DF91CF911F910F9102
:1001B0000895882349F0813011F4605C05C08230D5
:1001C00011F4605F01C0605B862F80680E94A00010
:1001D00008958FEF84BB80E69AEE0197F1F780E3F4
:1001E0000E94900080E29EE40197F1F780E30E9474
:1001F000900080EA9FE00197F1F782E30E9490006F
:1002000088E20E94A00088E00E94A00081E00E9495
:10021000A00086E00E94A0008CE00E94A00008954B
:100220009C01853B91051CF024EB30E004C097FF56
:1002300002C020E030E0C901880F991F880F991F84
:10024000820F931F69E070E00E94DC04645D7F4FC1
:10025000709387006093860008959C01853B91050B
:100260001CF024EB30E004C097FF02C020E030E037
:10027000C901880F991F880F991F820F931F69E08A
:1002800070E00E94DC04645D7F4F70938500609392
:10029000840008951F920F920FB60F920BB60F9223
:1002A00011242F933F934F935F936F937F938F937B
:1002B0009F93AF93BF93EF93FF9384E684BD209108
:1002C0004201213009F0EEC0809143018823B1F54D
:1002D000809140019091410101969093410180935A
:1002E00040018091400190914101883C910550F07E
:1002F0001092410110924001809143018F5F8093E1
:1003000043011CC020934401109246011092450104
:1003100080914501909146010E941001DA98109257
:10032000470184EB90E090934901809348018091CC
:100330004801909149010E942D01DB988091430171
:10034000813051F580914001909141010196909347
:100350004101809340018091400190914101883C8E
:10036000910550F01092410110924001809143019B
:100370008F5F8093430110C01092440184EB90E0A2
:1003800090934601809345018091450190914601EB
:100390000E941001DA98DB9A80914301823049F57E
:1003A0008091400190914101019690934101809389
:1003B00040018091400190914101883C910550F0AD
:1003C0001092410110924001809143018F5F809310
:1003D00043010FC0DA9A81E08093470110924901EE
:1003E0001092480180914801909149010E942D018D
:1003F000DB9880914301833049F5809140019091D1
:100400004101019690934101809340018091400108
:1004100090914101883C910550F010924101109259
:100420004001809143018F5F809343010FC081E0C1
:10043000809344011092460110924501809145013C
:10044000909146010E941001DA98DB9A8091430155
:10045000843041F580914001909141010196909343
:100460004101809340018091400190914101883C7D
:10047000910540F0109241011092400181E080937B
:10048000430110C0DA9A1092470184EB90E09093F8
:1004900049018093480180914801909149010E944F
:1004A0002D01DB98FF91EF91BF91AF919F918F91BB
:1004B0007F916F915F914F913F912F910F900BBE64
:1004C0000F900FBE0F901F90189520914001309112
:1004D00041012F5F3F4F3093410120934001209114
:1004E0004001309141012817390710F480E0089548
:1004F000109241011092400181E00895CC9902C010
:1005000081E00895CD9902C082E00895CE9902C09D
:1005100083E00895CF9902C084E00895B09B02C0A3
:1005200080E0089585E008951F93CF93DF930E94A4
:100530007E02182FC0EADFE082E390E0FE013197EF
:10054000F1F70197D9F70E947E02181711F0182FC2
:10055000F3CF112319F410923F0108C080913F019D
:10056000811711F410E002C010933F01812FDF9139
:10057000CF911F9108950F931F93CF93DF939C0109
:100580008B0110923A0110923B0110923C011092A3
:100590003D0110923E01C0E0D0E0C901B8010E94C7
:1005A000C804FE01E65CFE4F80832196C901B801B4
:1005B0000E94C8049B016115710579F7DF91CF9105
:1005C0001F910F9108958A3010F4805D0895895C21
:1005D000089520EA3FE004C0F9013197F1F701974F
:1005E00018161906CCF3089535E004C0232F2A9578
:1005F000F1F7019718161906CCF308951F93162FDB
:100600006AE070E00E94BB02112381F1163010F005
:1006100015E002C0153049F480913E018A3010F493
:10062000805D01C0895C0E946700143048F08091B1
:100630003D018A3010F4805D01C0895C0E94670032
:10064000133048F080913C018A3010F4805D01C085
:10065000895C0E946700113049F080913B018A302B
:1006600010F4805D01C0895C0E94670080913A01AE
:100670008A3010F4805D01C0895C0E9467001F9180
:100680000895FF920F931F93CF93DF930E94E90089
:1006900080E060E00E94D90080E091E00E94830049
:1006A00081E060E00E94D9008EE091E00E9483002A
:1006B00080ED97E020EA3FE0F9013197F1F70197EB
:1006C000D9F78AB38F708ABB8BB3806F8BBBB89816
:1006D000C09A82B1886182B98AB38C608ABB8091EA
:1006E0008B008E7A80938B0080918B00826A80933E
:1006F0008B0080918A008C7F80938A0080918A0091
:100700008C6180938A0082EE94E0909381008093C4
:100710008000809180009091810090934B018093A4
:100720004A010AE510E010934601009345018091CB
:100730004501909146010E941001109349010093D8
:10074000480180914801909149010E942D0185B591
:10075000857B85BD85B5856085BD84E684BD87B70D
:10076000806487BF789404EB10E0CAE5D0E0FF24F2
:10077000F3940E949402813011F580914201882304
:1007800009F0C5C080914501909146010A96909369
:100790004601809345018091450190914601853B3A
:1007A000910524F010934601009345018091450185
:1007B000909146010E94100110924401A8C082301D
:1007C00009F580914201882309F0A1C0809145017B
:1007D000909146010A97909346018093450180913C
:1007E00045019091460197FF04C010924601109276
:1007F000450180914501909146010E941001F092BF
:10080000440185C0833011F580914201882309F0AD
:100810007EC080914801909149010A9690934901C8
:10082000809348018091480190914901853B910551
:1008300024F0109349010093480180914801909160
:1008400049010E942D011092470161C0843009F5D1
:1008500080914201882309F05AC08091480190910B
:1008600049010A979093490180934801809148017A
:100870009091490197FF04C01092490110924801DC
:1008800080914801909149010E942D01F092470109
:100890003EC08530E1F580914C018F5F80934C0123
:1008A00080914C01823010F010924C0180914C01EB
:1008B000882311F41092420180914C01813011F48F
:1008C0008093420180914201813039F410924301BA
:1008D00010924101109240011AC080914201882378
:1008E000B1F4D0934601C0934501809145019091A8
:1008F00046010E941001DA9AD0934901C093480141
:1009000080914801909149010E942D01DB9A81E07C
:100910000E94A00080E060E00E94D9008BE191E09D
:100920000E948300809145019091460163E00E94FE
:10093000FE0280914401882319F485E291E006C00B
:1009400080914401813021F48AE291E00E94830089
:1009500081E060E00E94D9008FE291E00E94830074
:10096000809148019091490163E00E94FE028091CC
:100970004701882319F485E291E007C0809147017F
:10098000813009F0F6CE8AE291E00E948300F1CE38
:10099000AA1BBB1B51E107C0AA1FBB1FA617B707A5
:1009A00010F0A61BB70B881F991F5A95A9F78095C1
:1009B0009095BC01CD01089597FB092E07260AD01A
:1009C00077FD04D0E5DF06D000201AF4709561951C
:1009D0007F4F0895F6F7909581959F4F0895F8946D
:0209E000FFCF47
:1009E200536572766F20436F6E74726F6C0054653C
:1009F20073742050726F6772616D00534D313A20EB
:100A0200506F733D00204677640020526576005394
:0A0A12004D323A20506F733D000092
:00000001FF
