:100000000C9446000C9465000C9465000C946500FB
:100010000C9465000C9465000C9465000C946500CC
:100020000C9465000C9465000C94A8010C94650078
:100030000C9465000C9465000C9465000C946500AC
:100040000C9465000C9465000C9465000C9465009C
:100050000C9465000C9465000C9465000C9465008C
:100060000C9465000C9465000C9465000C9465007C
:100070000C9465000C9465000C9465000C9465006C
:100080000C9465000C9465000C94650011241FBE4F
:10009000CFEFD0E1DEBFCDBF11E0A0E0B1E0E0E105
:1000A000F8E000E00BBF02C007900D92A835B10741
:1000B000D9F711E0A8E5B1E001C01D92A236B10761
:1000C000E1F70E9435030C9406040C94000095E3BC
:1000D000292F2A95F1F7292F2A95F1F7292F2A950B
:1000E000F1F7292F2A95F1F79A95F1F7982F907F3C
:1000F000956095BB9B7F95BB8295807F856085BB16
:100100008B7F85BB0895CF93DF93EC0103C00E94E2
:100110006700219688818823D1F7DF91CF910895D8
:10012000982F907F946095BB9B7F95BB8295807F35
:10013000846085BB8B7F85BB85E08A95F1F7089548
:100140001F93182F85E3982F9A95F1F7982F9A957A
:10015000F1F7982F9A95F1F7982F9A95F1F78A95DC
:10016000F1F7812F0E9490001150123020F480E4AA
:100170009FE10197F1F71F9108950F931F93CF937C
:10018000DF938B01880F880F880F80640E94A00086
:10019000C0E0D0E0F801EC0FFD1F80810E946700F5
:1001A0002196C830D105B1F7DF91CF911F910F9102
:1001B0000895882349F0813011F4605C05C08230D5
:1001C00011F4605F01C0605B862F80680E94A00010
:1001D00008958FEF84BB80E69AEE0197F1F780E3F4
:1001E0000E94900080E29EE40197F1F780E30E9474
:1001F000900080EA9FE00197F1F782E30E9490006F
:1002000088E20E94A00088E00E94A00081E00E9495
:10021000A00086E00E94A0008CE00E94A00008954B
:100220009C0180915601909157018217930724F405
:10023000209156013091570180915A0190915B01B4
:100240006091560170915701D898AC01249FC0016C
:10025000259F900D349F900D11240E94DF037BBDDC
:100260006ABD0895AC0180915601909157018417A1
:10027000950724F4409156015091570180915A01FD
:1002800090915B016091560170915701D89A20912D
:100290005A0130915B01FC014E9FC0014F9F900DB0
:1002A0005E9F900D11240E94DF03261B370B3BBD80
:1002B0002ABD0895D8981BBC1ABC08959C01809152
:1002C0005401909155018217930724F42091540111
:1002D0003091550180915A0190915B0160915401D8
:1002E00070915501D998AC01249FC001259F900DB4
:1002F000349F900D11240E94DF0379BD68BD0895DD
:10030000AC0180915401909155018417950724F414
:10031000409154015091550180915A0190915B0197
:100320006091540170915501D99A20915A013091F0
:100330005B01FC014E9FC0014F9F900D5E9F900D91
:1003400011240E94DF03261B370B39BD28BD0895F9
:100350001F920F920FB60F920BB60F9211240F93AC
:100360001F932F933F934F935F936F937F938F933D
:100370009F93AF93BF93EF93FF9384E684BD8091E7
:100380005C0190915D01892B91F5809158019091CC
:10039000590101969093590180935801883C910529
:1003A00070F0109259011092580180915C01909167
:1003B0005D01019690935D0180935C0118C000E59A
:1003C00010E010935F0100935E0180915E019091B7
:1003D0005F010E941001DA9810936101009360019F
:1003E00080916001909161010E948001DB98809171
:1003F0005C0190915D01019751F5809158019091B8
:1004000059010196909359018093580184369105C2
:1004100070F0109259011092580180915C019091F6
:100420005D01019690935D0180935C0110C0109274
:100430005F0110925E01D8981BBC1ABCDA9A109228
:10044000610110926001D99819BC18BCDB9A8091A7
:100450005C0190915D01029791F580915801909116
:10046000590101969093590180935801883C910558
:1004700070F0109259011092580180915C01909196
:100480005D01019690935D0180935C0118C004E6C4
:1004900010E010935F0100935E0180915E019091E6
:1004A0005F010E943201DA981093610100936001AC
:1004B00080916001909161010E945E01DB988091C2
:1004C0005C0190915D01039729F58091580190910D
:1004D00059010196909359018093580184369105F2
:1004E00048F0109259011092580110925D0110923B
:1004F0005C0110C010925F0110925E01D8981BBC85
:100500001ABCDA9A1092610110926001D99819BC54
:1005100018BCDB9AFF91EF91BF91AF919F918F91A2
:100520007F916F915F914F913F912F911F910F910B
:100530000F900BBE0F900FBE0F901F901895D9987B
:1005400019BC18BC08959C018091560190915701E7
:10055000821793072CF4209156013091570112C055
:100560008091560190915701909581959F4F281742
:10057000390744F48091560190915701222733277F
:10058000281B390B1216130624F4C9010E9410010E
:1005900008952115310521F4D8981BBC1ABC089583
:1005A00088279927821B930B0E94320108959C0192
:1005B0008091540190915501821793072CF420915A
:1005C00054013091550112C0809154019091550110
:1005D000909581959F4F2817390744F480915401D5
:1005E0009091550122273327281B390B1216130629
:1005F00024F4C9010E945E0108952115310521F4FA
:10060000D99819BC18BC089588279927821B930B89
:100610000E948001089520915801309159012F5F67
:100620003F4F30935901209358012817390710F490
:1006300080E00895109259011092580181E00895C8
:1006400020EA3FE004C0F9013197F1F7019718164D
:100650001906CCF3089535E004C0232F2A95F1F74D
:10066000019718161906CCF30895CF93DF930E94D3
:10067000E90080E060E00E94D90080E091E00E9403
:10068000830081E060E00E94D90081E191E00E9456
:10069000830080ED97E020EA3FE0F9013197F1F720
:1006A0000197D9F78AB383608ABB87B3806687BB1B
:1006B0008AB38C608ABB8FB58E7A8FBD8FB5826A04
:1006C0008FBD8EB58B7F8EBD8EB58B618EBD82E367
:1006D00090E097BD86BD86B597B590935B018093FA
:1006E0005A0110925F0110925E01D8981BBC1ABC8F
:1006F0001092610110926001D99819BC18BC85B59F
:10070000857B85BD85B5856085BD84E684BD87B75D
:10071000806487BF7894C0EADFE0F89480915E013E
:1007200090915F0120916001309161017894892B53
:10073000B1F4232B51F481E00E94A00080E060E03E
:100740000E94D9008EE191E015C081E00E94A000D6
:1007500080E060E00E94D9008EE191E01DC0232B73
:1007600091F481E00E94A00080E060E00E94D90046
:1007700087E491E00E94830081E060E00E94D9005C
:100780008CE291E011C081E00E94A00080E060E076
:100790000E94D90087E491E00E94830081E060E03C
:1007A0000E94D9008AE391E00E94830082E390E0F6
:1007B000FE013197F1F7019709F4AFCFF9CF97FB1D
:1007C000092E07260AD077FD04D00CD006D00020D1
:1007D0001AF4709561957F4F0895F6F7909581957D
:1007E0009F4F0895AA1BBB1B51E107C0AA1FBB1F47
:1007F000A617B70710F0A61BB70B881F991F5A95AD
:10080000A9F780959095BC01CD010895F894FFCF8C
:100810004443204D6F746F7220436F6E74726F6C1F
:1008200000546573742050726F6772616D004D6F74
:10083000746F7231203A2053746F70004D6F746F73
:100840007232203A2053746F70004D6F746F7232A1
:10085000203A2052756E004D6F746F7231203A202D
:0808600052756E006400640093
:00000001FF
