:100000000C9446000C9465000C9465000C946500FB
:100010000C9465000C940A010C9465000C94650026
:100020000C9465000C9465000C9465000C946500BC
:100030000C9465000C9465000C9465000C946500AC
:100040000C944B020C9465000C9474010C946500A4
:100050000C9465000C9465000C9465000C9465008C
:100060000C9465000C9465000C9465000C9465007C
:100070000C9465000C9465000C9465000C9465006C
:100080000C9465000C9465000C94650011241FBE4F
:10009000CFEFD0E1DEBFCDBF12E0A0E0B1E0E8E8F5
:1000A000FAE000E00BBF02C007900D92A231B10749
:1000B000D9F712E0A2E1B2E001C01D92AA34B10763
:1000C000E1F70E9428030C9442050C94000095E38C
:1000D000292F2A95F1F7292F2A95F1F7292F2A950B
:1000E000F1F7292F2A95F1F79A95F1F7982F907F3C
:1000F000956095BB9B7F95BB8295807F856085BB16
:100100008B7F85BB0895CF93DF93EC0103C00E94E2
:100110006700219688818823D1F7DF91CF910895D8
:10012000982F907F946095BB9B7F95BB8295807F35
:10013000846085BB8B7F85BB85E08A95F1F7089548
:100140001F93182F85E3982F9A95F1F7982F9A957A
:10015000F1F7982F9A95F1F7982F9A95F1F78A95DC
:10016000F1F7812F0E9490001150123020F480E4AA
:100170009FE10197F1F71F9108958295880F880FED
:10018000807C680F862F80680E94A00008958FEF02
:1001900084BB80E69AEE0197F1F780E30E9490001D
:1001A00080E29EE40197F1F780E30E94900080EAEC
:1001B0009FE00197F1F782E30E94900088E20E949D
:1001C000A00088E00E94A00081E00E94A00086E0DC
:1001D0000E94A0008CE00E94A00008950F931F933E
:1001E000CF93DF938B01880F880F880F80640E9464
:1001F000A000C0E0D0E0F801EC0FFD1F80810E945C
:1002000067002196C830D105B1F7DF91CF911F91DA
:100210000F9108951F920F920FB60F9211242F93F2
:100220003F935F936F937F938F939F93AF93BF930E
:1002300080913A0290913B02009779F48091880076
:1002400090918900909341028093400281E090E078
:1002500090933B0280933A0239C00197B9F580919F
:1002600088009091890090933F0280933E022091F4
:10027000400230914102821B930B96958795909393
:100280003D0280933C026AE370E00E94F90470939F
:1002900037026093360280913602909137028D5773
:1002A000914040F08091380290913902909337024A
:1002B00080933602809136029091370290933902F2
:1002C0008093380210923B0210923A02BF91AF9194
:1002D0009F918F917F916F915F913F912F910F909F
:1002E0000FBE0F901F9018951F920F920FB60F928E
:1002F0000BB60F9211248F939F93EF93FF938CB1C2
:1003000080931902809119028E3291F08091190226
:100310005D9BFECF8CB980913502E82FF0E0909183
:100320001902E65EFD4F90838F5F8093350211C006
:10033000809119028E3269F45D9BFECF8AE08CB900
:1003400080913502809333021092350281E08093D0
:100350003402FF91EF919F918F910F900BBE0F9000
:100360000FBE0F901F9018959B01AC015898599A99
:1003700052988AB188618AB9E5E9F0E0808187788E
:10038000808380818660808363E0220F331F441F57
:10039000551F6A95D1F760E074E284EF90E00E9407
:1003A0002005215030403093900029B908955D9B7D
:1003B000FECF8CB90895FC0104C05D9BFECF319641
:1003C0008CB980818823C9F708959C018091BE0172
:1003D0009091BF018217930724F42091BE013091C0
:1003E000BF0180911702909118026091BE01709137
:1003F000BF01D898AC01249FC001259F900D349F68
:10040000900D11240E940D057BBD6ABD0895AC01BD
:100410008091BE019091BF018417950724F440910B
:10042000BE015091BF018091170290911802609116
:10043000BE017091BF01D89A209117023091180225
:10044000FC014E9FC0014F9F900D5E9F900D1124A7
:100450000E940D05261B370B3BBD2ABD0895D89879
:100460001BBC1ABC089587B18F7187B986B18768A4
:1004700086B9089597B1907E97B997B1883008F002
:1004800087E0982B97B9369A349BFECF349A24B1E3
:1004900035B1C90108951F920F920FB60F920BB696
:1004A0000F9211242F933F934F935F936F937F93FA
:1004B0008F939F93AF93BF93EF93FF9384E682BF95
:1004C0008091460290914702019690934702809353
:1004D00046020A9759F4109247021092460282E0AF
:1004E0000E943A0290934302809342028091440218
:1004F000909145020196909345028093440205979E
:1005000071F41092450210924402D99A84E190E06D
:1005100035E0232F2A95F1F70197D9F7D998FF9164
:10052000EF91BF91AF919F918F917F916F915F916B
:100530004F913F912F910F900BBE0F900FBE0F90D8
:100540001F9018950F931F93CF93DF939C018B01FE
:1005500010921202109213021092140210921502BD
:1005600010921602C0E0D0E0C901B8010E94F9045F
:10057000FE01EE5EFD4F80832196C901B8010E9405
:10058000F9049B016115710579F7DF91CF911F91F6
:100590000F9108958A3010F4805D0895895C089564
:1005A00020EA3FE004C0F9013197F1F701971816EE
:1005B0001906CCF3089535E004C0232F2A95F1F7EE
:1005C000019718161906CCF308951F93162F6AE0A9
:1005D00070E00E94A202112381F1163010F015E0A4
:1005E00002C0153049F4809116028A3010F4805D03
:1005F00001C0895C0E946700143048F080911502A8
:100600008A3010F4805D01C0895C0E94670013305D
:1006100048F0809114028A3010F4805D01C0895C3A
:100620000E946700113049F0809113028A3010F463
:10063000805D01C0895C0E946700809112028A304F
:1006400010F4805D01C0895C0E9467001F910895CD
:10065000CF92DF92EF92FF920F931F93CF93DF938E
:100660000E94C70080E060E00E94BD0080E091E051
:100670000E94830081E060E00E94BD008FE091E075
:100680000E94830088EE93E020EA3FE0F901319771
:10069000F1F70197D9F7D29ADA9AD19AD99880913D
:1006A00061008B7F80936100D09ABD9A8FB58E7B5D
:1006B0008FBD8FB582688FBD8EB58B7F8EBD8EB599
:1006C0008B618EBD82E390E097BD86BD86B597B500
:1006D0009093180280931702D8981BBC1ABC83B75A
:1006E000877B83BF83B7876083BF84E682BF87B77A
:1006F000816087BF80918B008C7F80938B0080917D
:100700008A00827E80938A0080918A008260809332
:100710008A008AB78D7F8ABF8AB781608ABF89B70E
:10072000806189BF87B18F7187B986B1876886B9C3
:1007300060E875E280E090E00E94B401579A7894F6
:100740000AE074E6C72ED12CF894E0904202F090B3
:100750004302C0913602D0913702789480913402DE
:10076000813091F730E040E050E060E070E010E070
:1007700020E044C0A22FB0E0FD01E65EFD4F908175
:10078000FD01E054FE4F8081981709F43F5FFD01A1
:10079000E65EFD4F9081FD01E953FE4F8081981781
:1007A00009F44F5FFD01E65EFD4F9081FD01E153CD
:1007B000FE4F8081981709F45F5FFD01E65EFD4FF3
:1007C0009081FD01E452FE4F8081981709F46F5F1C
:1007D000FD01E65EFD4F9081FD01E651FE4F8081F7
:1007E000981709F47F5FFD01E65EFD4F9081AF5FD2
:1007F000BD4F8C91981709F41F5F2F5F80913302D2
:10080000281708F4B7CF363031F4809133028630A0
:1008100011F411E029C0473031F480913302873060
:1008200011F412E021C05C3031F4809133028C303D
:1008300011F413E019C06D3031F4809133028D3022
:1008400011F414E011C0763131F480913302863115
:1008500011F415E009C01F3031F4809133028F305C
:1008600011F416E001C01EEF10923402113011F4A1
:10087000DA9884C0123011F4DA9A80C0133059F437
:10088000D0924902C0924802809148029091490258
:100890000E94E50173C0143021F4D8981BBC1ABC27
:1008A0006DC0153071F58DE191E00E94DB01CE0144
:1008B0006AE070E00E94A202809114028A3010F473
:1008C000805D01C0895C5D9BFECF8CB98091130275
:1008D0008A3010F4805D01C0895C5D9BFECF8CB9CD
:1008E000809112028A3010F4805D01C0895C5D9BAA
:1008F000FECF8CB982E391E00E94DB015D9BFECFCD
:1009000035C01630A9F585E391E00E94DB01C701EF
:100910006AE070E00E94A202809114028A3010F412
:10092000805D01C0895C5D9BFECF8CB98091140213
:100930008A3010F4805D01C0895C5D9BFECF8CB96C
:10094000809113028A3010F4805D01C0895C5D9B48
:10095000FECF8CB9809112028A3010F4805D01C004
:10096000895C5D9BFECF8CB95D9BFECF0CB906C048
:100970001E3F21F482E491E00E94DB0181E00E94AD
:10098000A0001E3F29F180E060E00E94BD008FE5DD
:1009900091E00E94830081E060E00E94BD00812F11
:1009A0008150823018F48FE691E020C0812F83506F
:1009B000823018F48AE791E019C0153019F48BE8F9
:1009C00091E014C0163009F0BFCE8CE991E00EC062
:1009D00080E060E00E94BD0087EA91E00E94830011
:1009E00081E060E00E94BD0083EB91E00E94830003
:1009F000ABCEAA1BBB1B51E107C0AA1FBB1FA6178A
:100A0000B70710F0A61BB70B881F991F5A95A9F7B7
:100A100080959095BC01CD01089597FB092E07267E
:100A20000AD077FD04D0E5DF06D000201AF47095D7
:100A300061957F4F0895F6F7909581959F4F0895A2
:100A4000A1E21A2EAA1BBB1BFD010DC0AA1FBB1FD2
:100A5000EE1FFF1FA217B307E407F50720F0A21B44
:100A6000B30BE40BF50B661F771F881F991F1A94B1
:100A700069F760957095809590959B01AC01BD01DB
:080A8000CF010895F894FFCFA7
:100A8800426C7565746F6F74682050726F6700539D
:100A9800656E6420436F6D6D616E642E006D6561D7
:100AA80073757265642064697374616E6365203D53
:100AB8002000636D004344532076616C7565203DCA
:100AC8002000436F6D6D616E64204572726F7221F4
:100AD80021202054727920616761696E2E0A004FC7
:100AE8007065726174696E67204D6F64653A004C79
:100AF8004544204F4E2F4F4646004443204D6F74C7
:100B08006F7220436F6E74726F6C00556C747261F3
:100B1800736F6E696353656E736F7200434453203D
:100B280053656E736F7200436D64204572726F7205
:100B380021210054727920416761696E2E0064009A
:100B48006C6564206F6E006C6564206F6666006477
:100B580063206D6F746F722072756E006463206D10
:100B68006F746F722073746F7000726561642075A2
:100B78006C747261736F6E69632073656E736F72E4
:100B88000072656164206364732073656E736F72AD
:020B980000005B
:00000001FF
