:100000000C9446000C9465000C9465000C946500FB
:100010000C9465000C943F010C9465000C946500F1
:100020000C9465000C9465000C9465000C946500BC
:100030000C9465000C9465000C9465000C946500AC
:100040000C9410010C9465000C9465000C946500F0
:100050000C9465000C9465000C9465000C9465008C
:100060000C9465000C9465000C9465000C9465007C
:100070000C9465000C9465000C9465000C9465006C
:100080000C9465000C9465000C94650011241FBE4F
:10009000CFEFD0E1DEBFCDBF11E0A0E0B1E0E4E101
:1000A000F5E000E00BBF02C007900D92A032B1074F
:1000B000D9F711E0A0E2B1E001C01D92A233B1076F
:1000C000E1F70E942A020C9488020C94000095E348
:1000D000292F2A95F1F7292F2A95F1F7292F2A950B
:1000E000F1F7292F2A95F1F79A95F1F7982F907F3C
:1000F000956095BB9B7F95BB8295807F856085BB16
:100100008B7F85BB0895CF93DF93EC0103C00E94E2
:100110006700219688818823D1F7DF91CF910895D8
:10012000982F907F946095BB9B7F95BB8295807F35
:10013000846085BB8B7F85BB85E08A95F1F7089548
:100140001F93182F85E3982F9A95F1F7982F9A957A
:10015000F1F7982F9A95F1F7982F9A95F1F78A95DC
:10016000F1F7812F0E9490001150123020F480E4AA
:100170009FE10197F1F71F9108950F931F93CF937C
:10018000DF938B01880F880F880F80640E94A00086
:10019000C0E0D0E0F801EC0FFD1F80810E946700F5
:1001A0002196C830D105B1F7DF91CF911F910F9102
:1001B0000895882349F0813011F4605C05C08230D5
:1001C00011F4605F01C0605B862F80680E94A00010
:1001D00008958FEF84BB80E69AEE0197F1F780E3F4
:1001E0000E94900080E29EE40197F1F780E30E9474
:1001F000900080EA9FE00197F1F782E30E9490006F
:1002000088E20E94A00088E00E94A00081E00E9495
:10021000A00086E00E94A0008CE00E94A00008954B
:100220001F920F920FB60F9211242F933F938F932B
:100230009F9384E682BF80913001909131010196B5
:100240009093310180933001059781F41092310130
:1002500010923001D89A84E190E035E0232F2A955E
:10026000F1F70197D9F7D898109225019F918F91B6
:100270003F912F910F900FBE0F901F9018951F92D6
:100280000F920FB60F9211242F933F935F936F93AA
:100290007F938F939F93AF93BF9380912501882382
:1002A00061F4809188009091890090932F01809350
:1002B0002E0181E08093250139C080912501813094
:1002C000A9F5809188009091890090932D018093E9
:1002D0002C0120912E0130912F01821B930B9695BA
:1002E000879590932B0180932A016AE370E00E9426
:1002F00074027093270160932601809126019091EA
:1003000027018D57914040F080912801909129015B
:1003100090932701809326018091260190912701D7
:10032000909329018093280110922501BF91AF91EC
:100330009F918F917F916F915F913F912F910F903E
:100340000FBE0F901F9018950F931F93CF93DF93BD
:100350009C018B0110922001109221011092220128
:100360001092230110922401C0E0D0E0C901B8012D
:100370000E947402FE01E05EFE4F80832196C90157
:10038000B8010E9474029B016115710579F7DF9134
:10039000CF911F910F9108958A3010F4805D0895D8
:1003A000895C089520EA3FE004C0F9013197F1F734
:1003B000019718161906CCF3089535E004C0232FD1
:1003C0002A95F1F7019718161906CCF308951F9393
:1003D000162F6AE070E00E94A401112381F116300B
:1003E00010F015E002C0153049F4809124018A30E4
:1003F00010F4805D01C0895C0E946700143048F0F1
:10040000809123018A3010F4805D01C0895C0E94D4
:100410006700133048F0809122018A3010F4805D2B
:1004200001C0895C0E946700113049F08091210170
:100430008A3010F4805D01C0895C0E946700809161
:1004400020018A3010F4805D01C0895C0E94670041
:100450001F9108950F931F930E94E90080E060E0D0
:100460000E94D90080E091E00E94830081E060E07A
:100470000E94D90081E191E00E948300D09AD8982F
:10048000149883B7877B83BF83B7876083BF84E675
:1004900082BF87B7816087BF80918B008C7F8093FC
:1004A0008B0080918A00827E80938A0080918A00EE
:1004B000826080938A008AB78D7F8ABF8AB7816005
:1004C0008ABF89B7806189BF7894F894009126012A
:1004D00010912701789481E069E00E94D900C80159
:1004E00063E00E94E701F1CFAA1BBB1B51E107C0EB
:1004F000AA1FBB1FA617B70710F0A61BB70B881FB4
:10050000991F5A95A9F780959095BC01CD01089542
:04051000F894FFCF8D
:10051400556C747261736F6E696353656E736F7239
:1005240000446973745F31203D20202020636D00F6
:00000001FF
