:100000000C9446000C9465000C9465000C946500FB
:100010000C9465000C9465000C9465000C946500CC
:100020000C9465000C9465000C9465000C946500BC
:100030000C9465000C9465000C9465000C946500AC
:100040000C9465000C9465000C9465000C9465009C
:100050000C9465000C9465000C9465000C9465008C
:100060000C9465000C9465000C9465000C9465007C
:100070000C9465000C9465000C940A010C946500C6
:100080000C9465000C9465000C94650011241FBE4F
:10009000CFEFD0E1DEBFCDBF11E0A0E0B1E0ECECEE
:1000A000F7E000E00BBF02C007900D92A439B10742
:1000B000D9F711E0A4E9B1E001C01D92A53AB1075A
:1000C000E1F70E9460020C94E4030C94000095E3B5
:1000D000292F2A95F1F7292F2A95F1F7292F2A950B
:1000E000F1F7292F2A95F1F79A95F1F7982F907F3C
:1000F000956095BB9B7F95BB8295807F856085BB16
:100100008B7F85BB0895CF93DF93EC0103C00E94E2
:100110006700219688818823D1F7DF91CF910895D8
:10012000982F907F946095BB9B7F95BB8295807F35
:10013000846085BB8B7F85BB85E08A95F1F7089548
:100140001F93182F85E3982F9A95F1F7982F9A957A
:10015000F1F7982F9A95F1F7982F9A95F1F78A95DC
:10016000F1F7812F0E9490001150123020F480E4AA
:100170009FE10197F1F71F9108958295880F880FED
:10018000807C680F862F80680E94A00008958FEF02
:1001900084BB80E69AEE0197F1F780E30E9490001D
:1001A00080E29EE40197F1F780E30E94900080EAEC
:1001B0009FE00197F1F782E30E94900088E20E949D
:1001C000A00088E00E94A00081E00E94A00086E0DC
:1001D0000E94A0008CE00E94A00008950F931F933E
:1001E000CF93DF938B01880F880F880F80640E9464
:1001F000A000C0E0D0E0F801EC0FFD1F80810E945C
:1002000067002196C830D105B1F7DF91CF911F91DA
:100210000F9108951F920F920FB60F9211242F93F2
:100220003F934F938F939F9380919C00809399016C
:100230009091990180919B0085FFFCCF90939C0049
:1002400080919A018F5F80939A0180919B0188230E
:10025000E9F480919901833741F480919901809369
:100260009C0181E080939B0164C080919901833758
:1002700009F45FC080919B0085FFFCCF8AE08093EA
:100280009C008091990180939C0150C080919B01BA
:10029000813009F04EC080919901803308F180913E
:1002A00099018A33E8F42091A0013091A101809155
:1002B0009901482F40534A3008F04750C901220F96
:1002C000331F220F331F220F331F880F991F280F50
:1002D000391F240F311D3093A1012093A00129C0A3
:1002E000809199018E3229F580919B0085FFFCCF8A
:1002F0008AE080939C008091A0019091A10190934D
:100300009F0180939E0180919E0190919F01853B6A
:10031000910534F084EB90E090939F0180939E01CF
:1003200010929B011092A1011092A00181E0809394
:100330009D019F918F914F913F912F910F900FBEF3
:100340000F901F901895982F80919B0085FFFCCFF0
:1003500090939C000895FC0107C080919B0085FF4D
:10036000FCCF319690939C0090819923B1F708952A
:100370009C01853B91051CF024EB30E004C097FF05
:1003800002C020E030E0C901880F991F880F991F33
:10039000820F931F69E070E00E94D103645D7F4F7C
:1003A000709387006093860008950F931F93CF93F7
:1003B000DF939C018B011092940110929501109291
:1003C00096011092970110929801C0E0D0E0C90107
:1003D000B8010E94BD03FE01EC56FE4F80832196BA
:1003E000C901B8010E94BD039B016115710579F730
:1003F000DF91CF911F910F9108958A3010F4805DA5
:100400000895895C089580538A3008F087500895D4
:1004100020EA3FE004C0F9013197F1F7019718167F
:100420001906CCF3089535E004C0232F2A95F1F77F
:10043000019718161906CCF308951F93162F6AE03A
:1004400070E00E94D501112381F1163010F015E003
:1004500002C0153049F4809198018A3010F4805D13
:1004600001C0895C0E946700143048F080919701B8
:100470008A3010F4805D01C0895C0E9467001330EF
:1004800048F0809196018A3010F4805D01C0895C4B
:100490000E946700113049F0809195018A3010F474
:1004A000805D01C0895C0E946700809194018A3060
:1004B00010F4805D01C0895C0E9467001F9108955F
:1004C0000F931F930E94C70080E060E00E94BD0070
:1004D00080E091E00E94830081E060E00E94BD0026
:1004E0008FE091E00E94830088EE93E020EA3FE0F5
:1004F000F9013197F1F70197D9F7D09AD89A139A61
:1005000080918B008E7B80938B0080918B00826822
:1005100080938B0080918A008C7F80938A008091E9
:100520008A008C6180938A0082EE94E0909381002F
:100530008093800080918000909181009093A3012E
:100540008093A20110929F0110929E0180919E01C2
:1005500090919F010E94B80180919B008E7F8093B3
:100560009B0080919B00826080939B0080919A0009
:100570008B7F80939A0080919A00886180939A0083
:1005800080919D00877880939D0080919D0086607A
:1005900080939D00109298008FEC80939900809139
:1005A0009A00806880939A0078940AE010919D01E7
:1005B0001130E1F780919C01813611F4D89AA0C0E6
:1005C00080919C01823611F4D8989AC080919C0148
:1005D000833621F48BB381278BBB92C080919C0121
:1005E0008436E9F58DE191E00E94AB0180919A019A
:1005F00090E06AE070E00E94D501809196018A3017
:1006000018F4982F905D02C0982F995C80919B0000
:1006100085FFFCCF90939C00809195018A3018F45F
:10062000982F905D02C0982F995C80919B0085FF68
:10063000FCCF90939C00809194018A3018F4982FFD
:10064000905D02C0982F995C80919B0085FFFCCF44
:1006500090939C0080919B0085FFFCCF48C08091C7
:100660009C01833709F046C080919E0190919F01C3
:100670000E94B80184E391E00E94AB0180919E0149
:1006800090919F016AE070E00E94D50180919601EF
:100690008A3018F4982F905D02C0982F995C809151
:1006A0009B0085FFFCCF90939C00809195018A3040
:1006B00018F4982F905D02C0982F995C80919B0050
:1006C00085FFFCCF90939C00809194018A3018F4B0
:1006D000982F905D02C0982F995C80919B0085FFB8
:1006E000FCCF90939C0080919B0085FFFCCF0093F2
:1006F0009C0006C087E491E00E94AB011093A40126
:100700008091A4018823F1F481E00E94A00080E0A0
:1007100060E00E94BD0084E691E00E948300809129
:100720009A0190E063E00E941D0281E060E00E9477
:10073000BD0080E791E00E94830080919C010E94AF
:10074000670018C08091A4018130A1F40E94A0002C
:1007500080E060E00E94BD008DE791E00E94830090
:1007600081E060E00E94BD0089E891E00E94830082
:100770001092A40110929D0119CFAA1BBB1B51E13D
:1007800007C0AA1FBB1FA617B70710F0A61BB70B01
:10079000881F991F5A95A9F780959095BC01CD01A6
:1007A000089597FB092E07260AD077FD04D0E5DFD0
:1007B00006D000201AF4709561957F4F0895F6F7E2
:0C07C000909581959F4F0895F894FFCF0D
:1007CC00426C7565746F6F74682050726F6700535C
:1007DC00656E6420436F6D6D616E642E00526563AF
:1007EC006569766564204461746120436F756E742D
:1007FC00203D2000536572766F3120706F736974E1
:10080C00696F6E203D2000436F6D6D616E642045F5
:10081C0072726F7221212020547279206167616994
:10082C006E2E0A005265637620636E74203D2000A4
:10083C00526563762064617461203D2000436D64D1
:10084C00204572726F7221210054727920416761C8
:04085C00696E2E0093
:00000001FF
