:100000000C9446000C9465000C9465000C946500FB
:100010000C9465000C94F5010C9460020C9465003E
:100020000C9465000C9465000C9465000C946500BC
:100030000C9465000C9465000C9465000C946500AC
:100040000C9410010C9465000C9465000C946500F0
:100050000C9465000C9465000C9465000C9465008C
:100060000C9465000C9465000C9465000C9465007C
:100070000C9465000C9465000C9465000C9465006C
:100080000C9465000C9465000C94650011241FBE4F
:10009000CFEFD0E1DEBFCDBF11E0A0E0B1E0EEEBED
:1000A000F7E000E00BBF02C007900D92A032B1074D
:1000B000D9F711E0A0E2B1E001C01D92A334B1076D
:1000C000E1F70E9467030C94DD030C94000095E3B4
:1000D000292F2A95F1F7292F2A95F1F7292F2A950B
:1000E000F1F7292F2A95F1F79A95F1F7982F907F3C
:1000F000956095BB9B7F95BB8295807F856085BB16
:100100008B7F85BB0895CF93DF93EC0103C00E94E2
:100110006700219688818823D1F7DF91CF910895D8
:10012000982F907F946095BB9B7F95BB8295807F35
:10013000846085BB8B7F85BB85E08A95F1F7089548
:100140001F93182F85E3982F9A95F1F7982F9A957A
:10015000F1F7982F9A95F1F7982F9A95F1F78A95DC
:10016000F1F7812F0E9490001150123020F480E4AA
:100170009FE10197F1F71F9108950F931F93CF937C
:10018000DF938B01880F880F880F80640E94A00086
:10019000C0E0D0E0F801EC0FFD1F80810E946700F5
:1001A0002196C830D105B1F7DF91CF911F910F9102
:1001B0000895882349F0813011F4605C05C08230D5
:1001C00011F4605F01C0605B862F80680E94A00010
:1001D00008958FEF84BB80E69AEE0197F1F780E3F4
:1001E0000E94900080E29EE40197F1F780E30E9474
:1001F000900080EA9FE00197F1F782E30E9490006F
:1002000088E20E94A00088E00E94A00081E00E9495
:10021000A00086E00E94A0008CE00E94A00008954B
:100220001F920F920FB60F9211242F933F935F935B
:100230006F937F938F939F93AF93BF9384E682BF17
:1002400080914101909142010196909342018093E7
:100250004101059709F0BBC0109242011092410183
:1002600080913D018F5F80933D0180913D018330FE
:1002700019F481E080933D0180913D01813061F46A
:10028000D89A84E190E035E0232F2A95F1F7019781
:10029000D9F7D89881E00FC080913D01823079F480
:1002A000D99A84E190E035E0232F2A95F1F7019760
:1002B000D9F7D99882E080932701109228012091E4
:1002C0003301309134018091290190912A018217E4
:1002D000930758F08091330190913401892B29F0D4
:1002E000809133019091340115C020912901309102
:1002F0002A0180913301909134012817390770F455
:100300008091290190912A01892B41F08091290146
:1003100090912A0190931F0180931E0180911E01EC
:1003200090911F01899720F481E080933E0102C0E3
:1003300010923E0180911E0190911F016AE070E0D1
:100340000E94C9036F5F7F4F7093400160933F012C
:1003500080913F0190914001029730F481E090E05C
:100360009093400180933F0180913F019091400123
:10037000049730F084E090E09093400180933F0137
:1003800080913E018130E9F420913F01309140019C
:1003900080912001909121010196909321018093F9
:1003A00020018217930798F01092210110922001EA
:1003B0008BB398E089278BBB8BB390E189278BBBEC
:1003C00006C080913E01882311F4DB98DC9ABF912E
:1003D000AF919F918F917F916F915F913F912F91FD
:1003E0000F900FBE0F901F9018951F920F920FB68F
:1003F0000F9211242F933F935F936F937F938F936B
:100400009F93AF93BF9320912701213009F04AC0F9
:1004100080912801882359F4809188009091890067
:1004200090933C0180933B01209328013BC0809135
:1004300028018130B9F580918800909189009093CE
:100440003A018093390120913B0130913C01821B9C
:10045000930B9695879590933801809337016AE3C3
:1004600070E00E94C903709334016093330180915E
:100470003301909134018D57914040F080913501C6
:100480009091360190933401809333018091330130
:100490009091340190933601809335011092280198
:1004A00010922701BF91AF919F918F917F916F9192
:1004B0005F913F912F910F900FBE0F901F90189555
:1004C0001F920F920FB60F9211242F933F935F93B9
:1004D0006F937F938F939F93AF93BF9380912701E7
:1004E000823009F04BC080912801882361F480910B
:1004F000880090918900909332018093310181E0CE
:10050000809328013BC0809128018130B9F580910A
:100510008800909189009093300180932F01209161
:10052000310130913201821B930B96958795909300
:100530002E0180932D016AE370E00E94C90370933D
:100540002A01609329018091290190912A018D57F8
:10055000914040F080912B0190912C0190932A01C1
:10056000809329018091290190912A0190932C0177
:1005700080932B011092280110922701BF91AF9117
:100580009F918F917F916F915F913F912F910F90EC
:100590000FBE0F901F9018950F931F93CF93DF936B
:1005A0009C018B01109222011092230110922401D0
:1005B0001092250110922601C0E0D0E0C901B801D7
:1005C0000E94C903FE01EE5DFE4F80832196C901A2
:1005D000B8010E94C9039B016115710579F7DF918C
:1005E000CF911F910F9108958A3010F4805D089586
:1005F000895C089520912001309121012F5F3F4FA8
:1006000030932101209320012817390710F480E04E
:100610000895109221011092200181E0089520EAAE
:100620003FE004C0F9013197F1F701971816190658
:10063000CCF3089535E004C0232F2A95F1F70197F4
:1006400018161906CCF308951F93162F6AE070E070
:100650000E94CC02112381F1163010F015E002C087
:10066000153049F4809126018A3010F4805D01C074
:10067000895C0E946700143048F0809125018A301F
:1006800010F4805D01C0895C0E946700133048F05F
:10069000809124018A3010F4805D01C0895C0E9441
:1006A0006700113049F0809123018A3010F4805D99
:1006B00001C0895C0E946700809122018A3010F499
:1006C000805D01C0895C0E9467001F910895EF92D0
:1006D000FF920F931F930E94E90080E060E00E9468
:1006E000D90080E091E00E94830081E060E00E94F8
:1006F000D9008FE091E00E9483008AB383608ABBB7
:100700008BB38C7F8BBB82B18F7C82B9D39ADB9801
:10071000D49ADC9A83B7877B83BF83B7876083BF14
:1007200084E682BF87B7816087BF80918B008C7F12
:1007300080938B0080918A00827E80938A008091D2
:100740008A00826080938A008AB7857F8ABF8AB7D1
:1007500085608ABF89B7806389BF7894F8940091D7
:10076000330110913401E0902901F0902A0178942E
:1007700080E069E00E94D900C80163E00E94240380
:1007800081E069E00E94D900C70163E00E94240370
:10079000E5CFAA1BBB1B51E107C0AA1FBB1FA617B1
:1007A000B70710F0A61BB70B881F991F5A95A9F71A
:0E07B00080959095BC01CD010895F894FFCF7F
:1007BE00446973745F31203D20202020636D004416
:1007CE006973745F32203D20202020636D002C0160
:00000001FF
