:100000000C9446000C9465000C9465000C946500FB
:100010000C9465000C9465000C9465000C946500CC
:100020000C9465000C9465000C94A8010C94650078
:100030000C9465000C9465000C9465000C946500AC
:100040000C9465000C9465000C9465000C9465009C
:100050000C9465000C9465000C9465000C9465008C
:100060000C9465000C9465000C9465000C9465007C
:100070000C9465000C9465000C9465000C9465006C
:100080000C9465000C9465000C94650011241FBE4F
:10009000CFEFD0E1DEBFCDBF11E0A0E0B1E0E8EEF0
:1000A000FAE000E00BBF02C007900D92AA38B1073A
:1000B000D9F711E0AAE8B1E001C01D92A43AB10756
:1000C000E1F70E94D5030C9472050C94000095E3AF
:1000D000292F2A95F1F7292F2A95F1F7292F2A950B
:1000E000F1F7292F2A95F1F79A95F1F7982F907F3C
:1000F000956095BB9B7F95BB8295807F856085BB16
:100100008B7F85BB0895CF93DF93EC0103C00E94E2
:100110006700219688818823D1F7DF91CF910895D8
:10012000982F907F946095BB9B7F95BB8295807F35
:10013000846085BB8B7F85BB85E08A95F1F7089548
:100140001F93182F85E3982F9A95F1F7982F9A957A
:10015000F1F7982F9A95F1F7982F9A95F1F78A95DC
:10016000F1F7812F0E9490001150123020F480E4AA
:100170009FE10197F1F71F9108950F931F93CF937C
:10018000DF938B01880F880F880F80640E94A00086
:10019000C0E0D0E0F801EC0FFD1F80810E946700F5
:1001A0002196C830D105B1F7DF91CF911F910F9102
:1001B0000895882349F0813011F4605C05C08230D5
:1001C00011F4605F01C0605B862F80680E94A00010
:1001D00008958FEF84BB80E69AEE0197F1F780E3F4
:1001E0000E94900080E29EE40197F1F780E30E9474
:1001F000900080EA9FE00197F1F782E30E9490006F
:1002000088E20E94A00088E00E94A00081E00E9495
:10021000A00086E00E94A0008CE00E94A00008954B
:100220009C0180918701909188018217930724F4A3
:1002300020918701309188018091920190919301E2
:100240006091870170918801D898AC01249FC0010A
:10025000259F900D349F900D11240E945F057BBD5A
:100260006ABD0895AC01809187019091880184173F
:10027000950724F440918701509188018091920163
:10028000909193016091870170918801D89A209193
:10029000920130919301FC014E9FC0014F9F900D40
:1002A0005E9F900D11240E945F05261B370B3BBDFE
:1002B0002ABD0895D8981BBC1ABC08959C01809152
:1002C0008501909186018217930724F4209185017E
:1002D0003091860180919201909193016091850106
:1002E00070918601D998AC01249FC001259F900D83
:1002F000349F900D11240E945F0579BD68BD08955B
:10030000AC0180918501909186018417950724F4B2
:1003100040918501509186018091920190919301C5
:100320006091850170918601D99A20919201309156
:100330009301FC014E9FC0014F9F900D5E9F900D59
:1003400011240E945F05261B370B39BD28BD089577
:100350001F920F920FB60F920BB60F9211241F939C
:100360002F933F934F935F936F937F938F939F93BD
:10037000AF93BF93EF93FF9384E684BD10919401F4
:10038000113009F0BAC08091950190919601892BA6
:1003900061F580918F019091900101969093900169
:1003A00080938F01883C910570F01092900110921B
:1003B0008F018091950190919601019690939601FD
:1003C0008093950112C010929701809198019091AD
:1003D00099010E941001DA9810939A0180919B0173
:1003E00090919C010E948001DB98809195019091F1
:1003F0009601019739F580918F01909190010196B6
:100400009093900180938F018436910570F0109243
:10041000900110928F018091950190919601019623
:1004200090939601809395010DC082E0809397018F
:10043000D8981BBC1ABCDA9A80939A01D99819BC37
:1004400018BCDB9A8091950190919601029769F50D
:1004500080918F01909190010196909390018093EB
:100460008F01883C910570F01092900110928F01DD
:1004700080919501909196010196909396018093B9
:10048000950113C081E0809397018091980190912C
:1004900099010E943201DA9810929A0180919B0191
:1004A00090919C010E945E01DB9880919501909152
:1004B0009601039711F580918F019091900101961B
:1004C0009093900180938F018436910548F01092AB
:1004D000900110928F0110929601109295010DC01B
:1004E00082E080939701D8981BBC1ABCDA9A80935B
:1004F0009A01D99819BC18BCDB9AFF91EF91BF9172
:10050000AF919F918F917F916F915F914F913F91AB
:100510002F911F910F900BBE0F900FBE0F901F9049
:100520001895D99819BC18BC08959C018091870131
:1005300090918801821793072CF4209187013091C4
:10054000880112C0809187019091880190958195D2
:100550009F4F2817390744F48091870190918801B3
:1005600022273327281B390B1216130624F4C9013E
:100570000E94100108952115310521F4D8981BBC63
:100580001ABC089588279927821B930B0E94320179
:1005900008959C01809185019091860182179307AF
:1005A0002CF4209185013091860112C08091850143
:1005B00090918601909581959F4F2817390744F4B3
:1005C000809185019091860122273327281B390BC2
:1005D0001216130624F4C9010E945E010895211524
:1005E000310521F4D99819BC18BC0895882799279A
:1005F000821B930B0E9480010895CC9902C081E078
:100600000895CD9902C082E00895CE9902C083E09A
:100610000895CF9902C084E00895B09B02C080E0A5
:10062000089585E008951F93CF93DF930E94FD0204
:10063000182FC0EADFE082E390E0FE013197F1F786
:100640000197D9F70E94FD02181711F0182FF3CF68
:10065000112319F41092910108C080919101811722
:1006600011F410E002C010939101812FDF91CF911E
:100670001F91089520918F01309190012F5F3F4F7E
:100680003093900120938F012817390710F480E0F0
:1006900008951092900110928F0181E008950F93B8
:1006A0001F93CF93DF939C018B0110928A011092CC
:1006B0008B0110928C0110928D0110928E01C0E07E
:1006C000D0E0C901B8010E944B05FE01E657FE4F7C
:1006D00080832196C901B8010E944B059B016115D9
:1006E000710579F7DF91CF911F910F9108958A30AD
:1006F00010F4805D0895895C089520EA3FE004C00D
:10070000F9013197F1F7019718161906CCF30895FE
:1007100035E004C0232F2A95F1F701971816190622
:10072000CCF308951F93162F6AE070E00E944F03E8
:10073000112381F1163010F015E002C0153049F494
:1007400080918E018A3010F4805D01C0895C0E9426
:100750006700143048F080918D018A3010F4805D7C
:1007600001C0895C0E946700133048F080918C01C1
:100770008A3010F4805D01C0895C0E9467001130EE
:1007800049F080918B018A3010F4805D01C0895C52
:100790000E94670080918A018A3010F4805D01C058
:1007A000895C0E9467001F9108951F930E94E900D1
:1007B00080E060E00E94D90080E091E00E94830028
:1007C00081E060E00E94D90081E191E00E94830015
:1007D00080ED97E020EA3FE0F9013197F1F70197CA
:1007E000D9F78AB38F708ABB8BB3806F8BBBB898F5
:1007F000C09A8AB383608ABB87B3806687BB8AB39B
:100800008C608ABB8FB58E7A8FBD8FB5826A8FBDA3
:100810008EB58B7F8EBD8EB58B618EBD82E390E0F1
:1008200097BD86BD86B597B590939301809392014D
:100830001092990110929801D8981BBC1ABC109282
:100840009C0110929B01D99819BC18BC85B5857B79
:1008500085BD85B5856085BD84E684BD87B7806428
:1008600087BF789412E00E9413038130D1F4809105
:100870009801909199010596909399018093980120
:100880002091980130919901809187019091880180
:10089000821793070CF097C080918701909188018F
:1008A0001BC08230F1F480919801909199010597D5
:1008B000909399018093980120919801309199012A
:1008C00080919D0190919E01281739070CF07BC003
:1008D00080919D0190919E01909399018093980140
:1008E00072C08330D1F480919B0190919C01059658
:1008F00090939C0180939B0120919B0130919C01DE
:100900008091850190918601821793070CF05BC05E
:1009100080918501909186011BC08430F1F4809113
:100920009B0190919C01059790939C0180939B0162
:1009300020919B0130919C0180919F019091A00199
:10094000281739070CF03FC080919F019091A001BA
:1009500090939C0180939B0136C08530A1F58091D6
:10096000A1018F5F8093A1018091A101823010F0DD
:100970001092A1018091A101882311F41092940199
:100980008091A101813011F48093940180919401B0
:10099000813049F410929601109295011092A301B2
:1009A0001092A20110C080919401882361F41093E9
:1009B0009701D8981BBC1ABCDA9A10939A01D9985F
:1009C00019BC18BCDB9A81E00E94A00080919401C0
:1009D000882371F460E00E94D9008EE191E00E94CA
:1009E000830081E060E00E94D9008AE291E050C07B
:1009F00080919401813009F036CF80E060E00E9460
:100A0000D90080919701882319F48BE391E006C007
:100A100080919701813079F488E491E00E9483000D
:100A2000809198019091990163E00E94920385E280
:100A30000E94670008C080919701823021F485E50B
:100A400091E00E94830081E060E00E94D9008091E3
:100A50009A01882319F48FE591E006C080919A01EC
:100A6000813079F48DE691E00E94830080919B01B2
:100A700090919C0163E00E94920385E20E946700CE
:100A8000F2CE80919A01823009F0EDCE8BE791E0B1
:100A90000E948300E8CEAA1BBB1B51E107C0AA1F1E
:100AA000BB1FA617B70710F0A61BB70B881F991F0F
:100AB0005A95A9F780959095BC01CD01089597FBB3
:100AC000092E07260AD077FD04D0E5DF06D00020E6
:100AD0001AF4709561957F4F0895F6F7909581957A
:080AE0009F4F0895F894FFCF29
:100AE8004443204D6F746F7220436F6E74726F6C45
:100AF80000546573742050726F6772616D0053748F
:100B08006F70204D6F64652121004D313A53746F29
:100B1800702C204D323A53746F70004D313A205288
:100B2800756E2046776420004D313A2052756E204C
:100B380052657620004D313A2053746F7020004D75
:100B4800323A2052756E2C2046776420004D323A96
:100B58002052756E2C2052657620004D323A205373
:0A0B6800746F702000640064000048
:00000001FF
