:100000000C9446000C9465000C9465000C946500FB
:100010000C9465000C9465000C9465000C946500CC
:100020000C9465000C9465000C942D010C946500F3
:100030000C9465000C9465000C9465000C946500AC
:100040000C9465000C9465000C9465000C9465009C
:100050000C9465000C9465000C9465000C9465008C
:100060000C9465000C9465000C9465000C9465007C
:100070000C9465000C9465000C9465000C9465006C
:100080000C9465000C9465000C94650011241FBE4F
:10009000CFEFD0E1DEBFCDBF11E0A0E0B1E0E6EAF6
:1000A000F7E000E00BBF02C007900D92A433B10748
:1000B000D9F711E0A4E3B1E001C01D92A434B10767
:1000C000E1F70E94A1020C94D1030C94000095E387
:1000D000292F2A95F1F7292F2A95F1F7292F2A950B
:1000E000F1F7292F2A95F1F79A95F1F7982F907F3C
:1000F000956095BB9B7F95BB8295807F856085BB16
:100100008B7F85BB0895CF93DF93EC0103C00E94E2
:100110006700219688818823D1F7DF91CF910895D8
:10012000982F907F946095BB9B7F95BB8295807F35
:10013000846085BB8B7F85BB85E08A95F1F7089548
:100140001F93182F85E3982F9A95F1F7982F9A957A
:10015000F1F7982F9A95F1F7982F9A95F1F78A95DC
:10016000F1F7812F0E9490001150123020F480E4AA
:100170009FE10197F1F71F9108950F931F93CF937C
:10018000DF938B01880F880F880F80640E94A00086
:10019000C0E0D0E0F801EC0FFD1F80810E946700F5
:1001A0002196C830D105B1F7DF91CF911F910F9102
:1001B0000895882349F0813011F4605C05C08230D5
:1001C00011F4605F01C0605B862F80680E94A00010
:1001D00008958FEF84BB80E69AEE0197F1F780E3F4
:1001E0000E94900080E29EE40197F1F780E30E9474
:1001F000900080EA9FE00197F1F782E30E9490006F
:1002000088E20E94A00088E00E94A00081E00E9495
:10021000A00086E00E94A0008CE00E94A00008954B
:100220009C01853B91051CF024EB30E004C097FF56
:1002300002C020E030E0C901880F991F880F991F84
:10024000820F931F69E070E00E94BE03645D7F4FE0
:10025000709387006093860008951F920F920FB6E7
:100260000F920BB60F9211242F933F934F935F93EE
:100270006F937F938F939F93AF93BF93EF93FF936E
:1002800084E684BD20913C01213009F056C0809164
:100290003D01882339F580913A0190913B01019607
:1002A00090933B0180933A0180913A0190913B01F8
:1002B000883C910550F010923B0110923A018091D8
:1002C0003D018F5F80933D010DC020933E01109250
:1002D000400110923F0180913F01909140010E94A6
:1002E0001001DA9880913D01813039F580913A0111
:1002F00090913B01019690933B0180933A0180914C
:100300003A0190913B01883C910538F010923B01F5
:1003100010923A0110923D0110C010923E0184EB00
:1003200090E09093400180933F0180913F01909134
:1003300040010E941001DA98DB9AFF91EF91BF9182
:10034000AF919F918F917F916F915F914F913F916D
:100350002F910F900BBE0F900FBE0F901F9018950E
:100360009C01853B91051CF024EB30E004C097FF15
:1003700002C020E030E0C901880F991F880F991F43
:10038000820F931F69E070E00E94BE03645D7F4F9F
:100390007093850060938400089520913A01309114
:1003A0003B012F5F3F4F30933B0120933A01209157
:1003B0003A0130913B012817390710F480E0089585
:1003C00010923B0110923A0181E00895CC9902C04D
:1003D00081E00895CD9902C082E00895CE9B02C0CD
:1003E00080E0089583E008951F93CF93DF930E94E8
:1003F000E601182FC0EADFE082E390E0FE013197CA
:10040000F1F70197D9F70E94E601181711F0182F9C
:10041000F3CF112319F41092390108C080913901EA
:10042000811711F410E002C010933901812FDF9180
:10043000CF911F9108950F931F93CF93DF939C014A
:100440008B011092340110923501109236011092F6
:10045000370110923801C0E0D0E0C901B8010E9414
:10046000AA03FE01EC5CFE4F80832196C901B8010E
:100470000E94AA039B016115710579F7DF91CF9165
:100480001F910F9108958A3010F4805D0895895C62
:10049000089520EA3FE004C0F9013197F1F7019790
:1004A00018161906CCF3089535E004C0232F2A95B9
:1004B000F1F7019718161906CCF308951F93162F1C
:1004C0006AE070E00E941B02112381F1163010F0E7
:1004D00015E002C0153049F4809138018A3010F4DB
:1004E000805D01C0895C0E946700143048F08091F3
:1004F00037018A3010F4805D01C0895C0E9467007A
:10050000133048F0809136018A3010F4805D01C0CC
:10051000895C0E946700113049F0809135018A3072
:1005200010F4805D01C0895C0E94670080913401F5
:100530008A3010F4805D01C0895C0E9467001F91C1
:100540000895FF920F931F93CF93DF930E94E900CA
:1005500080E060E00E94D90080E091E00E9483008A
:1005600081E060E00E94D9008EE091E00E9483006B
:1005700080ED97E020EA3FE0F9013197F1F701972C
:10058000D9F78AB38F7C8ABB8BB380638BBBB89857
:10059000C09A139AD29A80918B008E7B80938B00A5
:1005A00080918B00826880938B0080918A008C7F81
:1005B00080938A0080918A008C6180938A0082EE09
:1005C00094E09093810080938000809180009091CE
:1005D000810090934201809341018AE590E09093DD
:1005E000400180933F0180913F01909140010E9422
:1005F000100185B5857B85BD85B5856085BD84E6A3
:1006000084BD87B7806487BF789404EB10E0CAE5A7
:10061000D0E0FF24F3940E94F401813011F5809121
:100620003C01882309F073C080913F019091400103
:100630000A969093400180933F0180913F019091F1
:100640004001853B910524F01093400100933F0148
:1006500080913F01909140010E94100110923E0153
:1006600056C0823009F580913C01882309F04FC0C3
:1006700080913F01909140010A97909340018093AF
:100680003F0180913F019091400197FF04C010927B
:10069000400110923F0180913F01909140010E94E2
:1006A0001001F0923E0133C0833089F580914301FF
:1006B0008F5F8093430180914301823010F010924C
:1006C000430180914301882311F410923C018091F1
:1006D0004301813011F480933C0180913C018130D1
:1006E00039F410923D0110923B0110923A010FC073
:1006F00080913C01882359F4D0934001C0933F017D
:1007000080913F01909140010E941001DA9A81E0AE
:100710000E94A00080E060E00E94D9008BE191E09F
:100720000E94830080913F019091400163E00E940C
:100730005E0280913E01882319F48AE291E007C0AD
:1007400080913E01813009F066CF8FE291E00E94F6
:10075000830061CFAA1BBB1B51E107C0AA1FBB1FAF
:10076000A617B70710F0A61BB70B881F991F5A953D
:10077000A9F780959095BC01CD01089597FB092EAE
:1007800007260AD077FD04D0E5DF06D000201AF452
:10079000709561957F4F0895F6F7909581959F4FDD
:0607A0000895F894FFCF5C
:1007A600536572766F20436F6E74726F6C0054657A
:1007B60073742050726F6772616D00536572766F45
:1007C60020506F736974696F6E002046776400204D
:0407D60052657600F2
:00000001FF
