:100000000C9446000C9465000C9465000C946500FB
:100010000C9465000C9465000C9465000C946500CC
:100020000C9465000C9465000C9421010C946500FF
:100030000C9465000C9465000C9465000C946500AC
:100040000C9465000C9465000C9465000C9465009C
:100050000C9465000C9465000C9465000C9465008C
:100060000C9465000C9465000C9465000C9465007C
:100070000C9465000C9465000C9465000C9465006C
:100080000C9465000C9465000C94650011241FBE4F
:10009000CFEFD0E1DEBFCDBF11E0A0E0B1E0E8E8F6
:1000A000F7E000E00BBF02C007900D92AC34B1073F
:1000B000D9F711E0ACE4B1E001C01D92AC36B10754
:1000C000E1F70E9405030C94C2030C94000095E331
:1000D000292F2A95F1F7292F2A95F1F7292F2A950B
:1000E000F1F7292F2A95F1F79A95F1F7982F907F3C
:1000F000956095BB9B7F95BB8295807F856085BB16
:100100008B7F85BB0895CF93DF93EC0103C00E94E2
:100110006700219688818823D1F7DF91CF910895D8
:10012000982F907F946095BB9B7F95BB8295807F35
:10013000846085BB8B7F85BB85E08A95F1F7089548
:100140001F93182F85E3982F9A95F1F7982F9A957A
:10015000F1F7982F9A95F1F7982F9A95F1F78A95DC
:10016000F1F7812F0E9490001150123020F480E4AA
:100170009FE10197F1F71F9108950F931F93CF937C
:10018000DF938B01880F880F880F80640E94A00086
:10019000C0E0D0E0F801EC0FFD1F80810E946700F5
:1001A0002196C830D105B1F7DF91CF911F910F9102
:1001B0000895882349F0813011F4605C05C08230D5
:1001C00011F4605F01C0605B862F80680E94A00010
:1001D00008958FEF84BB80E69AEE0197F1F780E3F4
:1001E0000E94900080E29EE40197F1F780E30E9474
:1001F000900080EA9FE00197F1F782E30E9490006F
:1002000088E20E94A00088E00E94A00081E00E9495
:10021000A00086E00E94A0008CE00E94A00008954B
:1002200097B1907E97B997B1883008F087E0982B06
:1002300097B9369A349BFECF349A24B135B1C901AF
:1002400008951F920F920FB60F920BB60F921124C2
:100250002F933F934F935F936F937F938F939F93CE
:10026000AF93BF93EF93FF9384E684BD80916A01BF
:1002700090916B01019690936B0180936A010197B5
:1002800009F0CBC010926B0110926A0182E00E94CB
:100290001001909353018093520183E00E9410015A
:1002A0009093550180935401809152019091530194
:1002B0009C0140E050E080915E0190915F01A0912F
:1002C0006001B0916101280F391F4A1F5B1F209305
:1002D0005E0130935F014093600150936101809112
:1002E0006601909167010196909367018093660182
:1002F0004097B9F474E056954795379527957A95C8
:10030000D1F7309357012093560110926701109254
:10031000660110925E0110925F01109260011092CE
:1003200061018091560190915701909359018093FA
:10033000580180915401909155019C0140E050E09A
:100340008091620190916301A0916401B091650177
:10035000280F391F4A1F5B1F2093620130936301EE
:100360004093640150936501809168019091690107
:100370000196909369018093680180389105B9F4E2
:1003800067E056954795379527956A95D1F730934D
:100390005B0120935A01109269011092680110923A
:1003A00062011092630110926401109265016091E4
:1003B0005A0170915B0180E090E022EE34E040E071
:1003C00050E00E948F03672F782F892F9927709311
:1003D0005D0160935C0180915801909159018A3FC1
:1003E000910510F4DA9808C0809158019091590154
:1003F0008A3F910508F0DA9A80915C0190915D0145
:100400008E50914010F4DB9A08C080915C0190916D
:100410005D018E50914008F0DB98FF91EF91BF9104
:10042000AF919F918F917F916F915F914F913F918C
:100430002F910F900BBE0F900FBE0F901F9018952D
:10044000CC9902C081E00895CD9902C082E0089560
:10045000CE9B02C080E0089583E008951F93CF9360
:10046000DF930E942002182FC0EADFE082E390E0D1
:10047000FE013197F1F70197D9F70E942002181772
:1004800011F0182FF3CF112319F41092510108C065
:1004900080915101811711F410E002C010935101B5
:1004A000812FDF91CF911F9108950F931F93CF93C9
:1004B000DF939C018B0110924C0110924D01109220
:1004C0004E0110924F0110925001C0E0D0E0C901DE
:1004D000B8010E94AE03FE01E45BFE4F80832196CB
:1004E000C901B8010E94AE039B016115710579F73E
:1004F000DF91CF911F910F9108958A3010F4805DA4
:100500000895895C089520EA3FE004C0F90131971D
:10051000F1F7019718161906CCF3089535E004C0D9
:10052000232F2A95F1F7019718161906CCF3089591
:100530001F93162F6AE070E00E945502112381F18B
:10054000163010F015E002C0153049F480915001CA
:100550008A3010F4805D01C0895C0E94670014300D
:1005600048F080914F018A3010F4805D01C0895CB1
:100570000E946700133048F080914E018A3010F4D9
:10058000805D01C0895C0E946700113049F0809154
:100590004D018A3010F4805D01C0895C0E946700C3
:1005A00080914C018A3010F4805D01C0895C0E940A
:1005B00067001F9108956AE070E00E9455028091E3
:1005C0004E018A3010F4805D01C0895C0E94670092
:1005D00080914D018A3010F4805D01C0895C0E94D9
:1005E000670080E091E00E94830080914C018A3096
:1005F00010F4805D01C0895C0E9467008FED0E944D
:10060000670083E40E94670008950F931F93CF93C0
:10061000DF930E94E90080E060E00E94D90082E060
:1006200091E00E94830081E060E00E94D9008FE0A9
:1006300091E00E9483008AB38F788ABB8BB3806776
:100640008BBBD29A809161008B7F80936100D39A9B
:1006500080916100877F8093610085B5857B85BD32
:1006600085B5856085BD84E684BD87B7806487BF16
:10067000789487B18F7187B986B1876886B9F89405
:10068000C0915201D091530100915C0110915D0124
:1006900078940E942E028130B9F40E94A00080E07C
:1006A00060E00E94D9008BE191E00E94830081E02C
:1006B00060E00E94D9008CE291E00E948300CE01AC
:1006C00063E00E949802DBCF823061F481E00E94F7
:1006D000A00080E060E00E94D90083E391E00E94E6
:1006E000830011C0833059F681E00E94A00080E0B1
:1006F00060E00E94D9008CE291E00E948300CE016C
:1007000063E00E94980281E060E00E94D90084E4E6
:1007100091E00E948300C8010E94DB02B0CF629F7B
:10072000D001739FF001829FE00DF11D649FE00DE9
:10073000F11D929FF00D839FF00D749FF00D659F4A
:10074000F00D9927729FB00DE11DF91F639FB00D49
:10075000E11DF91FBD01CF0111240895AA1BBB1B88
:1007600051E107C0AA1FBB1FA617B70710F0A61BB1
:10077000B70B881F991F5A95A9F780959095BC01D2
:08078000CD010895F894FFCFAC
:100788002E00494C4C554D2053656E736F720054C2
:10079800454D502053656E736F7200494C4C554D52
:1007A800494E414E4345204D6F64650043445320F4
:1007B8003D200054454D5045524154555245204D19
:0C07C8006F646500544D50203D2000007F
:00000001FF
