:100000000C9446000C9465000C9465000C946500FB
:100010000C9465000C9465000C9465000C946500CC
:100020000C9465000C9465000C9410010C94650010
:100030000C9465000C9465000C9465000C946500AC
:100040000C9465000C9465000C9465000C9465009C
:100050000C9465000C9465000C9465000C9465008C
:100060000C9465000C9465000C9465000C9465007C
:100070000C9465000C9465000C9465000C9465006C
:100080000C9465000C9465000C94650011241FBE4F
:10009000CFEFD0E1DEBFCDBF11E0A0E0B1E0E2EBF9
:1000A000F5E000E00BBF02C007900D92A431B1074C
:1000B000D9F711E0A4E1B1E001C01D92A732B10768
:1000C000E1F70E946A020C94D7020C94000095E3B9
:1000D000292F2A95F1F7292F2A95F1F7292F2A950B
:1000E000F1F7292F2A95F1F79A95F1F7982F907F3C
:1000F000956095BB9B7F95BB8295807F856085BB16
:100100008B7F85BB0895CF93DF93EC0103C00E94E2
:100110006700219688818823D1F7DF91CF910895D8
:10012000982F907F946095BB9B7F95BB8295807F35
:10013000846085BB8B7F85BB85E08A95F1F7089548
:100140001F93182F85E3982F9A95F1F7982F9A957A
:10015000F1F7982F9A95F1F7982F9A95F1F78A95DC
:10016000F1F7812F0E9490001150123020F480E4AA
:100170009FE10197F1F71F9108950F931F93CF937C
:10018000DF938B01880F880F880F80640E94A00086
:10019000C0E0D0E0F801EC0FFD1F80810E946700F5
:1001A0002196C830D105B1F7DF91CF911F910F9102
:1001B0000895882349F0813011F4605C05C08230D5
:1001C00011F4605F01C0605B862F80680E94A00010
:1001D00008958FEF84BB80E69AEE0197F1F780E3F4
:1001E0000E94900080E29EE40197F1F780E30E9474
:1001F000900080EA9FE00197F1F782E30E9490006F
:1002000088E20E94A00088E00E94A00081E00E9495
:10021000A00086E00E94A0008CE00E94A00008954B
:100220001F920F920FB60F920BB60F9211242F93BD
:100230003F934F935F936F937F938F939F93AF936E
:10024000BF93EF93FF9384E684BD80912501909145
:10025000260101969093260180932501019709F0CC
:1002600076C0109226011092250187B1807E87B951
:1002700087B187B9369A349BFECF349A84B195B151
:1002800090931A01809319018091190190911A019C
:100290009C0140E050E080911F0190912001A091CD
:1002A0002101B0912201280F391F4A1F5B1F2093A3
:1002B0001F0130932001409321015093220180912E
:1002C00023019091240101969093240180932301AE
:1002D00080389105B9F467E056954795379527958D
:1002E0006A95D1F730931C0120931B0110922401D1
:1002F0001092230110921F011092200110922101EF
:100300001092220160911B0170911C0180E090E02D
:1003100022EE34E040E050E00E94A402672F782FE4
:10032000892F992770931E0160931D0180911D01F3
:1003300090911E018E50914010F4C59A08C0809192
:100340001D0190911E018E50914008F0C598FF91BB
:10035000EF91BF91AF919F918F917F916F915F913D
:100360004F913F912F910F900BBE0F900FBE0F90AA
:100370001F9018950F931F93CF93DF939C018B01D0
:10038000109214011092150110921601109217018B
:1003900010921801C0E0D0E0C901B8010E94C30268
:1003A000FE01EC5EFE4F80832196C901B8010E94D8
:1003B000C3029B016115710579F7DF91CF911F9100
:1003C0000F9108958A3010F4805D0895895C089536
:1003D00020EA3FE004C0F9013197F1F701971816C0
:1003E0001906CCF3089535E004C0232F2A95F1F7C0
:1003F000019718161906CCF308951F93162F6AE07B
:1004000070E00E94BA01112381F1163010F015E05E
:1004100002C0153049F4809118018A3010F4805DD3
:1004200001C0895C0E946700143048F08091170178
:100430008A3010F4805D01C0895C0E94670013302F
:1004400048F0809116018A3010F4805D01C0895C0B
:100450000E946700113049F0809115018A3010F434
:10046000805D01C0895C0E946700809114018A3020
:1004700010F4805D01C0895C0E9467001F9108959F
:100480006AE070E00E94BA01809116018A3010F48F
:10049000805D01C0895C0E946700809115018A30EF
:1004A00010F4805D01C0895C0E94670080E091E0EB
:1004B0000E948300809114018A3010F4805D01C095
:1004C000895C0E9467008FED0E94670083E40E94B0
:1004D000670008950F931F930E94E90080E060E099
:1004E0000E94D90082E091E00E94830081E060E0F8
:1004F0000E94D9008DE091E00E948300BD9A809116
:100500006100877F8093610085B5857B85BD85B55A
:10051000856085BD84E684BD87B7806487BF789495
:1005200087B18F7187B986B1876886B9F8940091D1
:100530001D0110911E01789481E066E00E94D900AF
:10054000C8010E944002F2CF629FD001739FF00168
:10055000829FE00DF11D649FE00DF11D929FF00D53
:10056000839FF00D749FF00D659FF00D9927729F8A
:10057000B00DE11DF91F639FB00DE11DF91FBD0115
:10058000CF0111240895AA1BBB1B51E107C0AA1F6C
:10059000BB1FA617B70710F0A61BB70B881F991F24
:1005A0005A95A9F780959095BC01CD010895F894CE
:0205B000FFCF7B
:1005B2002E00544D502053656E736F7200544D508F
:0405C200203D2000B8
:00000001FF
